:020000021000EC
:04FC00000C9446FE1C
:020000021000EC
:14FC8C0001E005BF02E005BFCFEFD0E1CDBFDEBFC051D04060
:14FCA0000AEA08830024E0E0F1E012E0E430F10711F001928A
:14FCB400FBCF0083ECE8FCEFA0E0B1E01CEF01E00BBFEC3845
:14FCC800F10721F0D89531960D92F9CF0E9430FFFFCF20D0F5
:14FCDC00F80120936800E89508951AD0F901080131E0309325
:14FCF0006800E8950895F80120FD2093680007911691089571
:14FD0400002E19E010936800E895089505D0B1E1B09368008D
:14FD1800E8950895B0916800B0FDFCCF0895AA92BA9275D032
:14FD2C00A02E73D03A2C202E3092010120920001322C2224E3
:14FD40003092030120920201ABBEB990A99008950E9476FF95
:14FD5400219700240882CC244427552715C059D0A02E57D06B
:14FD6800E02E2E2C3324322C22246A2D7727620D731D2A2C9A
:14FD7C00200EC20C9A018B010E9473FE4E5F5F4F4030E1E0B1
:14FD90005E0738F340D0E02EC01611F0002738C023E0009127
:14FDA4000201109103010E946DFE25E0009102011091030158
:14FDB8000E946DFE0E9488FE442755271BC022270091020163
:14FDCC0010910301040F151F0E947BFE7801B701CB0180702F
:14FDE0001C01232C3324CB019070820D931D28803324280E0C
:14FDF400391E28824E5F5F4F4030E1E05E0708F30880C014B2
:14FE080011F0002701C001E021960C946BFF0027112712C02A
:14FE1C00A8950E5F1F4F015010408AEF9FEFA0E0B0E01801E9
:14FE30004424552482159305A405B5050CF404C020909B003C
:14FE440027FEEACF00919C00089501C0A89520909B0025FE96
:14FE5800FBCF00939C00089584E082BB89E18093990088E1E0
:14FE6C0080939A0086E880939D00CFDF0EE3E9DFCCDF0C3366
:14FE800011F504E5E4DF04E4E2DF00E7E0DF03E6DEDF04E3E0
:14FE9400DCDFBFDF01E2D9DF13C0A89542DF80910001909102
:14FEA80001018F3FEFEF9E0709F409C04DDF002319F001E2F2
:14FEBC00C8DF02C000E4C5DFECCF22242BBE81E085BF25BECF
:14FED0000C9400000895A990B990C990D990E990F9904991C1
:14FEE40059916991799108957A936A935A934A93FA92EA92A3
:0AFEF800DA92CA92BA92AA92089513
:00000001FF
