:100000000C94FA140C9417150C9417150C941715DE
:100010000C9417150C9417150C941A1E0C941715A4
:100020000C9417150C9417150C94911D0C9417151E
:100030000C9417150C9417150C9417150C94821723
:100040000C9417150C9417150C9417150C94171580
:100050000C9417150C9417150C9417150C94171570
:100060000C9417150C9426170C9417150C9417154F
:100070000C9417150C9417150C94E5160C94171581
:100080000C9417150C9417150C941715BA1C911C89
:10009000771C5D1C431C291C0F1CF51BDB1BC11BA3
:1000A000A71B8D1B731B591B3F1B251B0C1B2828D3
:1000B00027272727272828282827272727272828CA
:1000C0002727000000000027272727272727272783
:1000D0002727272714141414142727272700000084
:1000E00000002727272727272727272727272727EE
:1000F0002727272727272727000000000027272753
:100100002700000000002727272700000000002705
:10011000272727272727272727272727000000000B
:100120000027272727000000000027272727000097
:1001300000000027272827272727272727282827C1
:10014000272727272727282827272727272727283C
:10015000282827272727272828282727000000279F
:100160002728282827272727272828282727000067
:100170000027272828282727272727282828272730
:1001800014141427272828272700000027272828A9
:100190002727000000272728282827272727272860
:1001A000282828272727272728282827270000004E
:1001B00027272828282727272727282828282700EF
:1001C000000027282828272700000027272828287C
:1001D000270000002728282828282727272828281C
:1001E0002828282727272828282828282727272895
:1001F00028282828272700272728282828282727AD
:100200002728282828282827272728282828282773
:10021000270027272828282828272727282828288C
:10022000282827272728282828282727002727287D
:100230002828282827272728282828282827272744
:10024000282828282827270027272828282828275B
:100250002727282828282828272727282828282823
:10026000272700272728282828282727272828283D
:100270002828282727272828282828280000002879
:1002800028282828282727272828282828282727F3
:1002900027282828000000000000000000000000BF
:1002A000000000000000000000000000000000004E
:1002B0000000000000000000000000000001020338
:1002C0000405060708090A0B0C0D0E0F1011121376
:1002D0001415161718191A1B1C1D1E1F2021222366
:1002E00024252627272727272727272727272727A4
:1002F000272727272727272727272727272727278E
:10030000272727272727272727272727272727277D
:10031000272727272727272727272727272727276D
:10032000272727272727272727272727272727275D
:100330002727272727262524232221201F1E1D1C8F
:100340001B1A191817161514131211100F0E0D0C75
:100350000B0A09080706050403020100000000005B
:10036000000000000000000000000000000000008D
:10037000000000000000000000000000000000007D
:10038000000000000000000000000000000000006D
:10039000000000000000000000000000000000005D
:1003A0000000000000000000000000000001020347
:1003B0000405060708090A0B0C0D0E0F1011121385
:1003C0001415161718191A1B1C1D1E1F2021222375
:1003D00024252627272727272727272727272727B3
:1003E000272727272727272727272727272727279D
:1003F000272727272727272727272727272727278D
:10040000272727272727272727272727272727277C
:10041000272727272727272727272727272727276C
:100420002727272727262524232221201F1E1D1C9E
:100430001B1A191817161514131211100F0E0D0C84
:100440000B0A09080706050403020100000000006A
:10045000000000000000000000000000000000009C
:10046000000000000000000000000000000000008C
:100470000000000027262524232221201F1E1D1CEA
:100480001B1A191817161514131211100F0E0D0C34
:100490000B0A09080706050403020100000000001A
:1004A000000000000000000000000000000000004C
:1004B000000000000000000000000000000000003C
:1004C000000000000000000000000000000000002C
:1004D000000000000000000000000000000000001C
:1004E0000000000000000000000000000001020306
:1004F0000405060708090A0B0C0D0E0F1011121344
:100500001415161718191A1B1C1D1E1F2021222333
:100510002425262727272727272727272727272771
:10052000272727272727272727272727272727275B
:10053000272727272727272727272727272727274B
:10054000272727272727272727272727272727273B
:10055000272727272727272727272727272727272B
:100560002727272727262524232221201F1E1D1C5D
:100570001B1A191817161514131211100F0E0D0C43
:100580000B0A090807060504030201000000000029
:10059000000000000000000000000000000000005B
:1005A000000000000000000000000000000000004B
:1005B000000000000000000000000000000000003B
:1005C000000000000000000000000000000000002B
:1005D0000000000000000000000000000001020315
:1005E0000405060708090A0B0C0D0E0F1011121353
:1005F0001415161718191A1B1C1D1E1F2021222343
:100600002425262727272727272727272727272780
:10061000272727272727272727272727272727276A
:10062000272727272727272727272727272727275A
:10063000272727272727272727272727272727274A
:10064000272727272727272727272727272727273A
:10065000272727272727272727272727272727272A
:10066000272727272727272727272727272727271A
:10067000272727272727272727272727272727270A
:1006800027272727272727272727272727272727FA
:1006900027272727272727272727272727272727EA
:1006A0002727272727262524232221201F1E1D1C1C
:1006B0001B1A191817161514131211100F0E0D0C02
:1006C0000B0A0908070605040302010000000000E8
:1006D000000000000000000000000000000000001A
:1006E000000000000000000000000000000000000A
:1006F00000000000000000000000000000000000FA
:1007000000000000000000000000000000000000E9
:1007100000000000000000000000000000010203D3
:100720000405060708090A0B0C0D0E0F1011121311
:100730001415161718191A1B1C1D1E1F2021222301
:10074000242526272727272727272727272727273F
:100750002727272727272727272727272727272729
:100760002727272727272727272727272727272719
:100770002727272727272727272727272727272709
:1007800027272727272727272727272727272727F9
:100790002727272727262524232221201F1E1D1C2B
:1007A0001B1A191817161514131211100F0E0D0C11
:1007B0000B0A0908070605040302010000000000F7
:1007C0000000000000000000000000000000000029
:1007D0000000000000000000000000000000000019
:1007E0000000000000000000000000000000000009
:1007F00000000000000000000000000000000000F9
:1008000000000000000000000000000000010203E2
:100810000405060708090A0B0C0D0E0F1011121320
:100820001415161718191A1B1C1D1E1F2021222310
:100830002425262700000000000000000000000022
:1008400000000000000000000000000000000000A8
:1008500000000000000000000000000027272727FC
:100860002727272727272727272727272727272718
:100870002727272727272727272727272727272708
:1008800027272727000000000000000000000000CC
:100890000000000000000000000000000000000058
:1008A00000000000000000000000000027272727AC
:1008B00027272727272727272727272727272727C8
:1008C00027272727272727272727272727272727B8
:1008D000272727270000000000000000000000007C
:1008E0000000000000000000000000000000000008
:1008F000000000000000000000000000272727275C
:100900002727272727272727272727272727272777
:100910002727272727272727272727272727272767
:10092000272727270000000000000000000000002B
:1009300000000000000000000000000000000000B7
:10094000000000000000000000000000272727270B
:100950002727272727272727272727272727272727
:100960002727272727272727272727272727272717
:1009700027272727000000000000000000000000DB
:100980000000000000000000000000000000000067
:1009900000000000000000000000000027272727BB
:1009A00027272727272727272727272727272727D7
:1009B00027272727272727272727272727272727C7
:1009C000272727270000000000000000000000008B
:1009D0000000000000000000000000000000000017
:1009E000000000000000000000000000272727276B
:1009F0002727272727272727272727272727272787
:100A00002727272727272727272727272727272776
:100A1000272727270000000000000000000000003A
:100A200000000000000000000000000000000000C6
:100A3000000000000000000000000000272727271A
:100A40002727272727272727272727272727272736
:100A50002727272727272727272727272727272726
:100A600027272727000000000000000000000000EA
:100A70000000000000000000000000000000000076
:100A800000000000000000000000000027272727CA
:100A900027272727272727272727272727272727E6
:100AA00027272727272727272727272727272727D6
:100AB000272727270000000000000000000000009A
:100AC0000000000000000000000000000000000026
:100AD000000000000000000000000000272727277A
:100AE0002727272727272727272727272727272796
:100AF0002727272727272727272727272727272786
:100B00002727272700000000000000000000000049
:100B100000000000000000000000000000000000D5
:100B20000000000000000000000000002727272729
:100B30002727272727272727272727272727272745
:100B40002727272727272727272727272727272735
:100B500027272727000000000000000000000000F9
:100B60000000000000000000000000000000000085
:100B700000000000000000000000000027272727D9
:100B800027272727272727272727272727272727F5
:100B900027272727272727272727272727272727E5
:100BA00027272727000000000000000000000000A9
:100BB0000000000000000000000000000000000035
:100BC0000000000000000000000000002727272789
:100BD00027272727272727272727272727272727A5
:100BE0002727272727272727272727272727272795
:100BF0002727272727272727272727272727272785
:100C00002727272727272727272727272727272774
:100C10002727272727272727272727272727272764
:100C20002727272727272727272727272727272754
:100C30002727272727272727272727272727272744
:100C40002727272727272727272727272727272734
:100C50002727272727272727272727272727272724
:100C60002727272727272727272727272727272714
:100C70002727272727272727272727272727272704
:100C800027272727272727272727272727272727F4
:100C900027272727272727272727272727272727E4
:100CA00027272727272727272727272727272727D4
:100CB00027272727272727272727272727272727C4
:100CC00027272727272727272727272727272727B4
:100CD00027272727272727272727272727272727A4
:100CE0002727272727272727272727272727272794
:100CF0002727272727272727272727272727272784
:100D00002727272727272727272727272727272773
:100D10002727272727272727272727272727272763
:100D20002727272727272727272727272727272753
:100D30002727272727272727272727272727272743
:100D40002727272727272727272727272727272733
:100D50002727272727272727272727272727272723
:100D60002727272727272727272727272727272713
:100D70002727272727272727272727272727272703
:100D800027272727272727272727272727272727F3
:100D900027272727272727272727272727272727E3
:100DA00027272727272727272727272727272727D3
:100DB00027272727272727272727272727272727C3
:100DC00027272727272727272727272727272727B3
:100DD000272727270C0C0C0D0D0E0E0F0F101011CE
:100DE00011121213131414151516161717181819B3
:100DF000191A1A1B1B1C1C1D1D1E1E1F1F1E1E1D2B
:100E00001D1C1C1B1B1A1A19191818171716161552
:100E100015141413131212111110100F0F0E0E0DC2
:100E20000D0C0C0C0C0C0C0D0D0E0E0F0F101011E8
:100E30001112121313141415151616171718181962
:100E4000191A1A1B1B1C1C1D1D1E1E1F1F1E1E1DDA
:100E50001D1C1C1B1B1A1A19191818171716161502
:100E600015141413131212111110100F0F0E0E0D72
:100E70000D0C0C0C0C0C0C0D0D0E0E0F0F10101198
:100E80001112121313141415151616171718181912
:100E9000191A1A1B1B1C1C1D1D1E1E1F1F1E1E1D8A
:100EA0001D1C1C1B1B1A1A191918181717161615B2
:100EB00015141413131212111110100F0F0E0E0D22
:100EC0000D0C0C0C0C0C0C0D0D0E0E0F0F10101148
:100ED00011121213131414151516161717181819C2
:100EE000191A1A1B1B1C1C1D1D1E1E1F1F1E1E1D3A
:100EF0001D1C1C1B1B1A1A19191818171716161562
:100F000015141413131212111110100F0F0E0E0DD1
:100F10000D0C0C0C0C0C0C0D0D0E0E0F0F101011F7
:100F20001112121313141415151616171718181971
:100F3000191A1A1B1B1C1C1D1D1E1E1F1F1E1E1DE9
:100F40001D1C1C1B1B1A1A19191818171716161511
:100F500015141413131212111110100F0F0E0E0D81
:100F60000D0C0C0C0C0C0C0D0D0E0E0F0F101011A7
:100F70001112121313141415151616171718181921
:100F8000191A1A1B1B1C1C1D1D1E1E1F1F1E1E1D99
:100F90001D1C1C1B1B1A1A191918181717161615C1
:100FA00015141413131212111110100F0F0E0E0D31
:100FB0000D0C0C0C0C0C0C0D0D0E0E0F0F10101157
:100FC00011121213131414151516161717181819D1
:100FD000191A1A1B1B1C1C1D1D1E1E1F1F1E1E1D49
:100FE0001D1C1C1B1B1A1A19191818171716161571
:100FF00015141413131212111110100F0F0E0E0DE1
:101000000D0C0C0C0C0C0C0D0D0E0E0F0F10101106
:101010001112121313141415151616171718181980
:10102000191A1A1B1B1C1C1D1D1E1E1F1F1E1E1DF8
:101030001D1C1C1B1B1A1A19191818171716161520
:1010400015141413131212111110100F0F0E0E0D90
:101050000D0C0C0C0C0C0C0D0D0E0E0F0F101011B6
:101060001112121313141415151616171718181930
:10107000191A1A1B1B1C1C1D1D1E1E1F1F1E1E1DA8
:101080001D1C1C1B1B1A1A191918181717161615D0
:1010900015141413131212111110100F0F0E0E0D40
:1010A0000D0C0C0C0C0C0C0D0D0E0E0F0F10101166
:1010B00011121213131414151516161717181819E0
:1010C000191A1A1B1B1C1C1D1D1E1E1F1F1E1E1D58
:1010D0001D1C1C1B1B1A1A19191818171716161580
:1010E00015141413131212111110100F0F0E0E0DF0
:1010F0000D0C0C0C0C0C0C0D0D0E0E0F0F10101116
:10110000111212131314141515161617171818198F
:10111000191A1A1B1B1C1C1D1D1E1E1F1F1E1E1D07
:101120001D1C1C1B1B1A1A1919181817171616152F
:1011300015141413131212111110100F0F0E0E0D9F
:101140000D0C0C0C0C0C0C0D0D0E0E0F0F101011C5
:10115000111212131314141515161617171818193F
:10116000191A1A1B1B1C1C1D1D1E1E1F1F1E1E1DB7
:101170001D1C1C1B1B1A1A191918181717161615DF
:1011800015141413131212111110100F0F0E0E0D4F
:101190000D0C0C0C0C0C0C0D0D0E0E0F0F10101175
:1011A00011121213131414151516161717181819EF
:1011B000191A1A1B1B1C1C1D1D1E1E1F1F1E1E1D67
:1011C0001D1C1C1B1B1A1A1919181817171616158F
:1011D00015141413131212111110100F0F0E0E0DFF
:1011E0000D0C0C0C0C0C0C0D0D0E0E0F0F10101125
:1011F000111212131314141515161617171818199F
:10120000191A1A1B1B1C1C1D1D1E1E1F1F1E1E1D16
:101210001D1C1C1B1B1A1A1919181817171616153E
:1012200015141413131212111110100F0F0E0E0DAE
:101230000D0C0C0C0C0C0C0D0D0E0E0F0F101011D4
:10124000111212131314141515161617171818194E
:10125000191A1A1B1B1C1C1D1D1E1E1F1F1E1E1DC6
:101260001D1C1C1B1B1A1A191918181717161615EE
:1012700015141413131212111110100F0F0E0E0D5E
:101280000D0C0C0C0C0C0C0D0D0E0E0F0F10101184
:1012900011121213131414151516161717181819FE
:1012A000191A1A1B1B1C1C1D1D1E1E1F1F1E1E1D76
:1012B0001D1C1C1B1B1A1A1919181817171616159E
:1012C00015141413131212111110100F0F0E0E0D0E
:1012D0000D0C0C0C0C0C0C0D0D0E0E0F0F10101134
:1012E00011121213131414151516161717181819AE
:1012F000191A1A1B1B1C1C1D1D1E1E1F1F1E1E1D26
:101300001D1C1C1B1B1A1A1919181817171616154D
:1013100015141413131212111110100F0F0E0E0DBD
:101320000D0C0C0C0C0C0C0D0D0E0E0F0F101011E3
:10133000111212131314141515161617171818195D
:10134000191A1A1B1B1C1C1D1D1E1E1F1F1E1E1DD5
:101350001D1C1C1B1B1A1A191918181717161615FD
:1013600015141413131212111110100F0F0E0E0D6D
:101370000D0C0C0C252424232322222121212020A2
:10138000201F1F1F1E1E1E1D1D1D1C1C1C1B1B1B8A
:101390001A1A1A19191918181817171717171718CA
:1013A00018181919191A1A1A1B1B1B1C1C1C1D1D95
:1013B0001D1E1E1E1F1F1F2020202121212222232F
:1013C00023242425252424232322222121212020F3
:1013D000201F1F1F1E1E1E1D1D1D1C1C1C1B1B1B3A
:1013E0001A1A1A191919181818171717171717187A
:1013F00018181919191A1A1A1B1B1B1C1C1C1D1D45
:101400001D1E1E1E1F1F1F202020212121222223DE
:1014100023242425252424232322222121212020A2
:10142000201F1F1F1E1E1E1D1D1D1C1C1C1B1B1BE9
:101430001A1A1A1919191818181717171717171829
:1014400018181919191A1A1A1B1B1B1C1C1C1D1DF4
:101450001D1E1E1E1F1F1F2020202121212222238E
:101460002324242525242423232222212121202052
:10147000201F1F1F1E1E1E1D1D1D1C1C1C1B1B1B99
:101480001A1A1A19191918181817171717171718D9
:1014900018181919191A1A1A1B1B1B1C1C1C1D1DA4
:1014A0001D1E1E1E1F1F1F2020202121212222233E
:1014B0002324242525242423232222212121202002
:1014C000201F1F1F1E1E1E1D1D1D1C1C1C1B1B1B49
:1014D0001A1A1A1919191818181717171717171889
:1014E00018181919191A1A1A1B1B1B1C1C1C1D1D54
:1014F0001D1E1E1E1F1F1F202020212121222223EE
:1015000023242425252424232322222121212020B1
:10151000201F1F1F1E1E1E1D1D1D1C1C1C1B1B1BF8
:101520001A1A1A1919191818181717171717171838
:1015300018181919191A1A1A1B1B1B1C1C1C1D1D03
:101540001D1E1E1E1F1F1F2020202121212222239D
:101550002324242525242423232222212121202061
:10156000201F1F1F1E1E1E1D1D1D1C1C1C1B1B1BA8
:101570001A1A1A19191918181817171717171718E8
:1015800018181919191A1A1A1B1B1B1C1C1C1D1DB3
:101590001D1E1E1E1F1F1F2020202121212222234D
:1015A0002324242525242423232222212121202011
:1015B000201F1F1F1E1E1E1D1D1D1C1C1C1B1B1B58
:1015C0001A1A1A1919191818181717171717171898
:1015D00018181919191A1A1A1B1B1B1C1C1C1D1D63
:1015E0001D1E1E1E1F1F1F202020212121222223FD
:1015F00023242425252424232322222121212020C1
:10160000201F1F1F1E1E1E1D1D1D1C1C1C1B1B1B07
:101610001A1A1A1919191818181717171717171847
:1016200018181919191A1A1A1B1B1B1C1C1C1D1D12
:101630001D1E1E1E1F1F1F202020212121222223AC
:101640002324242525242423232222212121202070
:10165000201F1F1F1E1E1E1D1D1D1C1C1C1B1B1BB7
:101660001A1A1A19191918181817171717171718F7
:1016700018181919191A1A1A1B1B1B1C1C1C1D1DC2
:101680001D1E1E1E1F1F1F2020202121212222235C
:101690002324242525242423232222212121202020
:1016A000201F1F1F1E1E1E1D1D1D1C1C1C1B1B1B67
:1016B0001A1A1A19191918181817171717171718A7
:1016C00018181919191A1A1A1B1B1B1C1C1C1D1D72
:1016D0001D1E1E1E1F1F1F2020202121212222230C
:1016E00023242425252424232322222121212020D0
:1016F000201F1F1F1E1E1E1D1D1D1C1C1C1B1B1B17
:101700001A1A1A1919191818181717171717171856
:1017100018181919191A1A1A1B1B1B1C1C1C1D1D21
:101720001D1E1E1E1F1F1F202020212121222223BB
:10173000232424252524242323222221212120207F
:10174000201F1F1F1E1E1E1D1D1D1C1C1C1B1B1BC6
:101750001A1A1A1919191818181717171717171806
:1017600018181919191A1A1A1B1B1B1C1C1C1D1DD1
:101770001D1E1E1E1F1F1F2020202121212222236B
:10178000232424252524242323222221212120202F
:10179000201F1F1F1E1E1E1D1D1D1C1C1C1B1B1B76
:1017A0001A1A1A19191918181817171717171718B6
:1017B00018181919191A1A1A1B1B1B1C1C1C1D1D81
:1017C0001D1E1E1E1F1F1F2020202121212222231B
:1017D00023242425252424232322222121212020DF
:1017E000201F1F1F1E1E1E1D1D1D1C1C1C1B1B1B26
:1017F0001A1A1A1919191818181717171717171866
:1018000018181919191A1A1A1B1B1B1C1C1C1D1D30
:101810001D1E1E1E1F1F1F202020212121222223CA
:10182000232424252524242323222221212120208E
:10183000201F1F1F1E1E1E1D1D1D1C1C1C1B1B1BD5
:101840001A1A1A1919191818181717171717171815
:1018500018181919191A1A1A1B1B1B1C1C1C1D1DE0
:101860001D1E1E1E1F1F1F2020202121212222237A
:10187000232424252524242323222221212120203E
:10188000201F1F1F1E1E1E1D1D1D1C1C1C1B1B1B85
:101890001A1A1A19191918181817171717171718C5
:1018A00018181919191A1A1A1B1B1B1C1C1C1D1D90
:1018B0001D1E1E1E1F1F1F2020202121212222232A
:1018C00023242425252424232322222121212020EE
:1018D000201F1F1F1E1E1E1D1D1D1C1C1C1B1B1B35
:1018E0001A1A1A1919191818181717171717171875
:1018F00018181919191A1A1A1B1B1B1C1C1C1D1D40
:101900001D1E1E1E1F1F1F202020212121222223D9
:101910002324242527262524232221201F1E1D1CA5
:101920001B1A191817161514131211100F0E0D0C7F
:101930000B0A090807060504030201000000000065
:101940000000000000000000000000000000000097
:101950000000000000000000000000000000000087
:101960000000000000000000000000000000000077
:101970000000000000000000000000000000000067
:101980000000000000000000000000000001020351
:101990000405060708090A0B0C0D0E0F101112138F
:1019A0001415161718191A1B1C1D1E1F202122237F
:1019B00024252627272727272727272727272727BD
:1019C00027272727272727272727272727272727A7
:1019D0002727272727272727272727272727272797
:1019E0002727272727272727272727272727272787
:1019F0002727272727272727272727272727272777
:101A0000272727270000000000000000000000003A
:101A100000000000000000000000000000000000C6
:101A200000000000000000000000000000010203B0
:101A30000405060708090A0B0C0D0E0F10111213EE
:101A40001415161718191A1B1C1D1E1F20212223DE
:101A5000242526272727272727272727272727271C
:101A60002727272727272727272727272727272706
:101A700027272727272727272727272727272727F6
:101A800027272727272727272727272727272727E6
:101A900027272727272727272727272727272727D6
:101AA0002727272727262524232221201F1E1D1C08
:101AB0001B1A191817161514131211100F0E0D0CEE
:101AC0000B0A0908070605040302010000000000D4
:101AD0000000000000000000000000000000000006
:101AE00000000000000000000000000000000000F6
:101AF0000000000027272727272727272727272712
:101B00002727272727272727272727272727272765
:101B10002727272727272727272727272727272755
:101B20002727272727272727272727272727272745
:101B30002727272727272727272727272727272735
:101B40002727272727262524232221201F1E1D1C67
:101B50001B1A191817161514131211100F0E0D0C4D
:101B60000B0A090807060504030201000000000033
:101B70000000000000000000000000000000000065
:101B80000000000000000000000000000000000055
:101B90000000000000000000000000000000000045
:101BA0000000000000000000000000000000000035
:101BB000000000000000000000000000000102031F
:101BC0000405060708090A0B0C0D0E0F101112135D
:101BD0001415161718191A1B1C1D1E1F202122234D
:101BE0002425262727000000000000000000000038
:101BF00000000000000000002700000000000000BE
:101C000000000000000000000000000027010203A7
:101C10000405060708090A0B0C0D0E0F101112130C
:101C20002715161718191A1B1C1D1E1F20212223E9
:101C3000242526272727272727272727272727273A
:101C40002727272727272727272727272727272724
:101C50002727272727272727272727272727272714
:101C60002727272727272727272727272727272704
:101C700027272727272727272727272727272727F4
:101C80002727272727262524232221201F1E1D1C26
:101C90001B1A191817161514271211100F0E0D0CF8
:101CA0000B0A0908070605040302010027000000CB
:101CB0000000000000000000000000000000000024
:101CC00027000000000000000000000000000000ED
:101CD0000000000027262524232221201F1E1D1C72
:101CE0001B1A191817161514271211100F0E0D0CA8
:101CF0000B0A09080706050403020100270000007B
:101D000000000000000000000000000000000000D3
:101D1000270000000000000000000000000000009C
:101D2000000000002700000000000000000000008C
:101D3000000000000000000027000000000000007C
:101D40000000000000000000000000002701020366
:101D50000405060708090A0B0C0D0E0F10111213CB
:101D60002715161718191A1B1C1D1E1F20212223A8
:101D700024252627272727272727272727272727F9
:101D800027272727272727272727272727272727E3
:101D900027272727272727272727272727272727D3
:101DA00027272727272727272727272727272727C3
:101DB00027272727272727272727272727272727B3
:101DC00027272727272727272727272727272727A3
:101DD0002727272727272727272727272727272793
:101DE0002727272727272727272727272727272783
:101DF0002727272727272727272727272727272773
:101E00002727272727272727272727272727272762
:101E10002727272727262524232221201F1E1D1C94
:101E20001B1A191817161514271211100F0E0D0C66
:101E30000B0A090807060504030201002700000039
:101E40000000000000000000000000000000000092
:101E5000270000000000000000000000000000005B
:101E6000000000002700000000000000000000004B
:101E7000000000000000000027000000000000003B
:101E80000000000000000000000000002701020325
:101E90000405060708090A0B0C0D0E0F101112138A
:101EA0002715161718191A1B1C1D1E1F2021222367
:101EB00024252627002727272727272727272727DF
:101EC00027272727272727270027272727272727C9
:101ED00027272727272727272727272700272727B9
:101EE0002727272727272727272727272727272782
:101EF0000027272727272727272727272727272799
:101F00002727272700272727272727272727272788
:101F10002727272727272727002727272727272778
:101F20002727272727272727272727270027272768
:101F30002727272727272727272727272727272731
:101F40000027272727272727272727272727272748
:101F50002727272700272727272727272727272738
:101F60002727272727272727002727272727272728
:101F70002727272727272727272727270027272718
:101F800027272727272727272727272727272727E1
:101F900000272727272727272727272727272727F8
:101FA00027272727002727272727272727272727E8
:101FB00027272727272727270027272727272727D8
:101FC00027272727272727272727272700272727C8
:101FD0002727272727272727272727272727272791
:101FE00000272727272727272727272727272727A8
:101FF0002727272700272727272727272727272798
:102000002727272727272727002727272727272787
:102010002727272727272727272727270027272777
:102020002727272727272727272727272727272740
:102030000027272727272727272727272727272757
:102040002727272700272727272727272727272747
:102050002727272727272727002727272727272737
:102060002727272727272727272727270027272727
:1020700027272727272727272727272727272727F0
:102080000027272727272727272727272727272707
:1020900027272727002727272727272727272727F7
:1020A00027272727272727270027272727272727E7
:1020B00027272727272727272727272700272727D7
:1020C00027272727272727272727272727272727A0
:1020D00000272727272727272727272727272727B7
:1020E00027272727002727272727272727272727A7
:1020F0002727272727272727002727272727272797
:102100002727272727272727272727270027272786
:10211000272727272727272727272727272727274F
:102120000027272727272727272727272727272766
:102130002727272700272727272727272727272756
:102140002727272727272727002727272727272746
:102150002727272727272727272727270027272736
:1021600027272727272727272727272727272727FF
:102170000027272727272727272727272727272716
:1021800027272727272727272727272727272727DF
:1021900027272727272727272727272727272727CF
:1021A00027272727272727272727272727272727BF
:1021B00027272727272727272727272727272727AF
:102450002727272727270000000000000000000092
:1024600000000000000000272727000000000000F7
:1024700000000000000000000000002727270000E7
:102480000000000000000000000000000000002725
:1024900027270000000000000000000000000000EE
:1024A00000000027272700000000000000000000B7
:1024B00000000000000000272727000000000000A7
:1024C0000000000000000000000000272727000097
:1024D00000000000000000000000000000000027D5
:1024E000272700000000000000000000000000009E
:1024F0000000002727270000000000000000000067
:102500000000000000000027272700000000000056
:102510000000000000000000000000272727000046
:102520000000000000000000000000000000002784
:10253000272700000000000000000000000000004D
:102540000000002727270000000000000000000016
:102550000000000000000027272700000000000006
:1025600000000000000000000000002727270000F6
:102570000000000000000000000000000000002734
:1025800027270000000000000000000000000000FD
:1025900000000027272700000000000000000000C6
:1025A00000000000000000272727000000000000B6
:1025B00000000000000000000000002727270000A6
:1025C00000000000000000000000000000000027E4
:1025D00027270000000000000000000000000000AD
:1025E0000000002727270000000000000000000076
:1025F0000000000000000027272700000000000066
:102600000000000000000000000000272727000055
:102610000000000000000000000000000000002793
:10262000272700000000000000000000000000005C
:102630000000002727270000000000000000000025
:102640000000000000000027272700000000000015
:102650000000000000000000000000272727000005
:102660000000000000000000000000000000002743
:10267000272700000000000000000000000000000C
:1026800000000027272700000000000000000000D5
:1026900000000000000000272727000000000000C5
:1026A00000000000000000000000002727270000B5
:1026B00000000000000000000000000000000027F3
:1026C00027270000000000000000000000000000BC
:1026D0000000002727270000000000000000000085
:1026E0000000000000000027272700000000000075
:1026F0000000000000000000000000272727000065
:1027000000000000000000000000000000000027A2
:10271000272700000000000000000000000000006B
:102720000000002700000000000000000000000082
:102730000000000000000000000000000000000099
:102740000000000000000000000000000000000089
:102750000000000000000000000000000000000079
:102760000000000000000000000000000000000069
:1029F0000000000011241FBECFEFD0E1DEBFCDBF2D
:102A000011E0A0E0B1E0EEE0F2E400E00BBF02C0B4
:102A100007900D92A030B107D9F711E0A0E0B1E026
:102A200001C01D92A733B107E1F70C94EB1E0C9483
:102A300000009C01832F9927809398002093990090
:102A400088E980939A0086E080939D0008958091A4
:102A50009B008823E4F780919C0099270895982F84
:102A600080919B0085FFFCCF90939C000895CF93AD
:102A7000DF93EC018881882331F089910E942F1522
:102A800088818823D1F7DF91CF9108951F93CF9349
:102A9000DF93982F80910201891759F480910A01E0
:102AA0008F5F80930A01853130F084E180930A01C1
:102AB00002C010920A0190930201892F99278F7703
:102AC00090708131910509F469C1823191056CF4EE
:102AD0008D30910551F18E3091051CF40C97A1F0C9
:102AE00070C1409709F44DC16CC18132910509F460
:102AF000E2C08232910524F4809709F475C061C167
:102B0000C89709F45CC05DC180911901813021F43E
:102B100010921901D89804C081E080931901D89AC5
:102B2000109201011092000149C18091190188237E
:102B300009F445C0809101019927009719F0019788
:102B400091F03CC181E08093010110922B018091B2
:102B50001A01869586959927880F991F880F991FC6
:102B600080931A012BC11092010110922D018091C6
:102B70001A018695869580932E018091360164E135
:102B80000E94E72080932F01882319F48CE0809322
:102B90002F01CDE2D1E012E088810E94D4208993F8
:102BA000115017FFF9CF80912F01806280932F0180
:102BB00047E06DE271E080E00E94EA1FFFC0809173
:102BC0001901882389F0809100019927009719F055
:102BD000019729F0F3C081E08093000102C01092B8
:102BE000000110922B01EAC080911901882309F499
:102BF000E8C0809101019927009719F0019751F0E1
:102C0000E0C080911801863119F410921801D3C0E8
:102C10008F5F65C080910A0120911A018431C8F448
:102C2000822F8C5F80931A01803F11F410921A0159
:102C300080911A016CE00E94E720992309F0C1C03D
:102C4000809136018F5F80933601803F09F0B9C0D3
:102C50002FC0822F68E10E94E7209923C9F0822FBC
:102C60008C5F80931A01803F11F410921A018091B9
:102C70001A016CE00E94E720992309F0A2C080911C
:102C800036018F5F80933601803F09F09AC010C0F3
:102C9000822F885E80931A01803F11F490931A016D
:102CA000809136018E5F80933601803F09F089C0A4
:102CB0009093360186C080911901882309F461C080
:102CC000809101019927009719F0019759F079C077
:102CD00080911801882311F486E101C0815080930E
:102CE000180169C080910A0120911A01843188F489
:102CF000222319F480EF80931A0180911A018450E5
:102D000080931A016CE00E94E720992309F059C0D2
:102D100016C0822F68E10E94E7209923D9F0222370
:102D200019F480EF80931A0180911A0184508093E6
:102D30001A016CE00E94E720992309F042C08091BB
:102D40003601882319F480EF809336018091360193
:102D5000815014C0222319F480EF80931A018091CE
:102D60001A01885180931A0180913601882319F441
:102D700080EF809336018091360182508093360136
:102D800020C0809119018823E1F0809126018530CF
:102D900019F4109226010FC08F5F0BC080911901AA
:102DA000882379F080912601882311F485E001C001
:102DB00081508093260182E08093250189B78F7D21
:102DC00089BFDF91CF911F9108951F920F920FB687
:102DD0000F9211242F938F939F93EF93FF939091D2
:102DE0002701E92FFF27E25FFE4F80919C0080833F
:102DF000892F8F5F809327018530F1F480910E0138
:102E00008235D1F480910F018534B1F480911001A5
:102E1000833591F480911101853471F48091120110
:102E2000843551F488E190E02BE00FB6F894A89532
:102E300081BD0FBE21BDFFCFFF91EF919F918F917B
:102E40002F910F900FBE0F901F9018951F920F9209
:102E50000FB60F9211242F935F936F937F938F93ED
:102E60009F93AF93BF931092890010928800809136
:102E70008000909181008D56944840F480917C00B0
:102E800082FD04C080911901882381F480917C0027
:102E9000846080937C0087E290E09BBD8ABD99BDF1
:102EA00088BD90937900809378001FC08091800046
:102EB0009091810060EF70E00E94F32061BF8091EB
:102EC000800090918100282F91B780EF989FC001DA
:102ED0001124281B20931B0184EB80931E0181B7D2
:102EE000825082BF87B7826087BFBF91AF919F91A9
:102EF0008F917F916F915F912F910F900FBE0F90E7
:102F00001F9018951F920F920FB60F9211242F93B6
:102F10003F934F935F936F937F938F939F93AF9361
:102F2000BF93EF93FF9390911E01933B19F487B7E2
:102F30008D7F87BF50911B01552319F481B78150B4
:102F400081BF903F11F410921E0160910101613028
:102F500009F413C180911E01282F332780912B0182
:102F6000281B31092115310509F4A0C012161306DA
:102F70007CF17FEF2431370709F4E4C08FEF25316E
:102F800038077CF4EFEF22313E0709F4B5C0FFEFBC
:102F900023313F070CF0C3C021513F4F09F499C0C2
:102FA000ECC08FEF2D3F380709F447C0EFEF2E3FFD
:102FB0003E0724F42C5F3F4F69F1DFC07FEF2E3FC7
:102FC000370709F44DC02F5F3F4F09F45CC0D5C0EF
:102FD0002430310509F4B6C0253031054CF42230D7
:102FE000310509F489C0233031050CF098C071C057
:102FF0002D3E310511F12E3E310524F42C3E3105D4
:1030000049F0BBC02E3E310559F12F3E310509F480
:103010003AC0B3C0909126018BE1989FC001112462
:10302000FC01EE50FE4F4491FC01E550FE4F3491FF
:10303000FC01EC5FFD4F249197C0909126018BE13C
:10304000989FC0011124FC01ED50FE4F4491FC01FA
:10305000E450FE4F3491FC01EB5FFD4F249184C09E
:10306000909126018BE1989FC0011124FC01EC5046
:10307000FE4F4491FC01E350FE4F3491FC01EA5FA6
:10308000FD4F249171C0909126018BE1989FC00162
:103090001124FC01EB50FE4F4491FC01E250FE4F25
:1030A0003491FC01E95FFD4F24915EC090912601AF
:1030B0008BE1989FC0011124FC01EA50FE4F44911E
:1030C000FC01E150FE4F3491FC01E85FFD4F24917B
:1030D0004BC0909126018BE1989FC0011124FC0107
:1030E000E950FE4F4491FC01E050FE4F3491FC0149
:1030F000E75FFD4F249138C0909126018BE1989FA6
:10310000C0011124FC01E850FE4F4491FC01EF5F27
:10311000FD4F3491FC01E65FFD4F249125C0909155
:1031200026018BE1989FC0011124FC01E750FE4F5E
:103130004491FC01EE5FFD4F3491FC01E55FFD4FD2
:10314000249112C0909126018BE1989FC001112417
:10315000FC01E650FE4F4491FC01ED5FFD4F3491C0
:10316000FC01E45FFD4F2491483209F010C1383270
:1031700009F010C1283209F010C180911E01282FDA
:10318000332780911A01281B31092115310509F4D3
:10319000A0C0121613067CF1EFEF24313E0709F4AC
:1031A000E4C0FFEF25313F077CF47FEF2231370782
:1031B00009F4B5C08FEF233138070CF0C3C021519B
:1031C0003F4F09F499C0ECC0FFEF2D3F3F0709F4D2
:1031D00047C07FEF2E3F370724F42C5F3F4F69F144
:1031E000DFC0EFEF2E3F3E0709F44DC02F5F3F4F8A
:1031F00009F45CC0D5C02430310509F4B6C02530CF
:1032000031054CF42230310509F489C023303105F1
:103210000CF098C071C02D3E310511F12E3E3105E4
:1032200024F42C3E310549F0BBC02E3E310559F146
:103230002F3E310509F43AC0B3C0909126018BE1CD
:10324000989FC0011124FC01E05BFE4F4491FC01FA
:10325000E75AFE4F3491FC01EE59FE4F249197C07E
:10326000909126018BE1989FC0011124FC01EF5A37
:10327000FE4F4491FC01E65AFE4F3491FC01ED599A
:10328000FE4F249184C0909126018BE1989FC0014C
:103290001124FC01EE5AFE4F4491FC01E55AFE4F09
:1032A0003491FC01EC59FE4F249171C0909126019C
:1032B0008BE1989FC0011124FC01ED5AFE4F44910F
:1032C000FC01E45AFE4F3491FC01EB59FE4F24916E
:1032D0005EC0909126018BE1989FC0011124FC01F2
:1032E000EC5AFE4F4491FC01E35AFE4F3491FC012D
:1032F000EA59FE4F24914BC0909126018BE1989F93
:10330000C0011124FC01EB5AFE4F4491FC01E25A2A
:10331000FE4F3491FC01E959FE4F249138C0909141
:1033200026018BE1989FC0011124FC01EA5AFE4F4F
:103330004491FC01E15AFE4F3491FC01E859FE4FE3
:10334000249125C0909126018BE1989FC001112402
:10335000FC01E95AFE4F4491FC01E05AFE4F3491C2
:10336000FC01E759FE4F249112C0909126018BE198
:10337000989FC0011124FC01E85AFE4F4491FC01C2
:10338000EF59FE4F3491FC01E659FE4F249148322B
:1033900009F010C1383209F00FC1283209F00EC10E
:1033A00080911E01282F332780913601281B310977
:1033B0002115310509F4A0C0121613067CF17FEF28
:1033C0002431370709F4E4C08FEF253138077CF446
:1033D000EFEF22313E0709F4B5C0FFEF23313F077D
:1033E0000CF0C3C021513F4F09F499C0FFC08FEFCB
:1033F0002D3F380709F447C0EFEF2E3F3E0724F476
:103400002C5F3F4F69F1F2C07FEF2E3F370709F481
:103410004DC02F5F3F4F09F45CC0E8C02430310538
:1034200009F4B6C0253031054CF42230310509F4D9
:1034300089C0233031050CF098C071C02D3E310594
:1034400011F12E3E310524F42C3E310549F0CEC059
:103450002E3E310559F12F3E310509F43AC0C6C060
:10346000909126018BE1989FC0011124FC01E25547
:10347000FF4F4491FC01E954FF4F3491FC01E054AB
:10348000FF4F249197C0909126018BE1989FC00136
:103490001124FC01E155FF4F4491FC01E854FF4F1A
:1034A0003491FC01EF53FF4F249184C09091260189
:1034B0008BE1989FC0011124FC01E055FF4F44911E
:1034C000FC01E754FF4F3491FC01EE53FF4F249170
:1034D00071C0909126018BE1989FC0011124FC01DD
:1034E000EF54FF4F4491FC01E654FF4F3491FC012F
:1034F000ED53FF4F24915EC0909126018BE1989F80
:10350000C0011124FC01EE54FF4F4491FC01E5542D
:10351000FF4F3491FC01EC53FF4F24914BC090912D
:1035200026018BE1989FC0011124FC01ED54FF4F4F
:103530004491FC01E454FF4F3491FC01EB53FF4FE5
:10354000249138C0909126018BE1989FC0011124ED
:10355000FC01EC54FF4F4491FC01E354FF4F3491C4
:10356000FC01EA53FF4F249125C0909126018BE185
:10357000989FC0011124FC01EB54FF4F4491FC01C2
:10358000E254FF4F3491FC01E953FF4F249112C0E4
:10359000909126018BE1989FC0011124FC01EA540F
:1035A000FF4F4491FC01E154FF4F3491FC01E8537B
:1035B000FF4F2491483221F4383211F42832B1F00F
:1035C000613049F48091230181FD05C080910A0199
:1035D000882309F40CC2842F99279BBD8ABD832FB1
:1035E000992799BD88BD822F9927FDC12091180187
:1035F000822F9927AA27BB27FC013697E131F105D5
:1036000008F0CFC1EA5BFF4F40911E01EE0FFF1F94
:103610000590F491E02D099480911F01E82FE40FAB
:10362000F12DF11D9F01EC58FC4E849199279BBD13
:103630008ABDF901EC5AFA4E8491992799BD88BD4B
:103640002C5C384EF901849182C180911F01682F52
:10365000640F712D711D9B01FB01EC58FC4E849190
:1036600099279BBD8ABDFB01EC5AFA4E849199279C
:1036700099BD88BD2C5C384EF9018491B3C180910D
:103680002401682F640F712D711D9B01FB01EC5803
:10369000FC4E849199279BBD8ABDFB01EC5AFA4EE2
:1036A0008491992799BD88BD2C5C384EF90184918D
:1036B0004EC180912401682F640F712D711D9B01F3
:1036C000FB01EC58FC4E849199279BBD8ABDFB0100
:1036D000EC5AFA4E8491992799BD88BD2C5C384EDE
:1036E000F90184917FC180911F01682F640F712DB2
:1036F000711D9B01FB01EC52F24F849199279BBDF8
:103700008ABDFB01EC54F04F8491992799BD88BD87
:103710002C563E4EF90184911AC180911F01682FE9
:10372000640F712D711D9B01FB01EC52F24F8491CE
:1037300099279BBD8ABDFB01EC54F04F84919927DA
:1037400099BD88BD2C563E4EF90184914BC18091A4
:103750002401682F640F712D711D9B01FB01EC5238
:10376000F24F849199279BBD8ABDFB01EC54F04F29
:103770008491992799BD88BD2C563E4EF9018491BC
:10378000E6C080912401682F640F712D711D9B018B
:10379000FB01EC52F24F849199279BBD8ABDFB013E
:1037A000EC54F04F8491992799BD88BD2C563E4E1C
:1037B000F901849117C180911C01682F640F712D4C
:1037C000711D9B01FB01EC5CF74F849199279BBD18
:1037D0008ABDFB01EC5EF54F8491992799BD88BDA8
:1037E0002C50344FF9018491FDC080911F01682F46
:1037F000640F712D711D9B01FB01EC56FD4F8491EF
:1038000099279BBD8ABDFB01EC58FB4F84919927FA
:1038100099BD88BD2C5A394FF901849198C0809187
:103820001F01682F640F712D711D9B01FB01EC5668
:10383000FD4F849199279BBD8ABDFB01EC58FB4F3E
:103840008491992799BD88BD2C5A394FF9018491EB
:10385000C9C080912401682F640F712D711D9B01D7
:10386000FB01EC56FD4F849199279BBD8ABDFB015E
:10387000EC58FB4F8491992799BD88BD2C5A394F3C
:10388000F901849164C080912401682F640F712D27
:10389000711D9B01FB01EC56FD4F849199279BBD47
:1038A0008ABDFB01EC58FB4F8491992799BD88BDD7
:1038B0002C5A394FF901849195C080912801682FC5
:1038C000640F712D711D9B01FB01EC56FD4F84911E
:1038D00099279BBD8ABDFB01EC58FB4F849199272A
:1038E00099BD88BD2C5A394FF901849130C080911F
:1038F0002801682F640F712D711D9B01FB01EC568F
:10390000FD4F849199279BBD8ABDFB01EC58FB4F6D
:103910008491992799BD88BD2C5A394FF90184911A
:1039200061C080912B01282F3327F901EC5FF54E00
:10393000849199279BBD8ABDF901EC5EF64E849176
:10394000992799BD88BD2C50354EF901849199274E
:103950009093790080937800842F64E10E94E7209F
:10396000992309F044C087E290E09BBD8ABD99BDD0
:1039700088BD39C080912B01282F3327F901EC5FD6
:10398000F54E849199279BBD8ABDF901EC5EF64EF8
:103990008491992799BD88BD2C50354EF9018491A9
:1039A00021C0332780ED92E0289FB001299F700D40
:1039B000389F700D1124CB0120911E01820F911DA3
:1039C000FC01EC5EF64E249133273BBD2ABDFC0181
:1039D000EC5FF54E2491332739BD28BD8C50954EB0
:1039E000FC018491992790937900809378008091CD
:1039F0001E018F5F80931E01515050931B0184B5AF
:103A00008093200184B565E50E94E720292F992342
:103A100009F076C0809135018F5F809335018091E8
:103A20001D018F5F80931D0190910D019F5F909309
:103A30000D01809122018F5F809322019837A1F4BC
:103A400080912C018F5F80932C018C3359F48091ED
:103A500028018F5F80932801803F11F42093280173
:103A600020932C0110920D0180911D01863059F494
:103A7000809124018F5F80932401803F11F4109284
:103A8000240110921D0180913501823059F48091FA
:103A90001F018F5F80931F01803F11F410921F015F
:103AA0001092350180912201853051F580912101DC
:103AB0008F5F80932101833009F580912001992740
:103AC000992786959795882720911C0180509048CA
:103AD00049F4822F8F5F80931C01803F69F410921C
:103AE0001C010AC0222319F480EF80931C018091ED
:103AF0001C01815080931C0110922101109222011F
:103B0000FF91EF91BF91AF919F918F917F916F91B5
:103B10005F914F913F912F910F900FBE0F901F908B
:103B200018951F920F920FB60F9211242F933F9367
:103B30006F937F938F939F93809123018F5F8093E7
:103B4000230180910301282F332780912A0199278F
:103B500087FD90952817390711F410922A0180915A
:103B60002A018093030120910001213029F480E192
:103B700080930C0184E003C084E080930C01809367
:103B800029019091230180910C01981709F047C0F9
:103B90001092270110922301809125018F5F80935D
:103BA000250190912901891739F41092250110926D
:103BB0000A0189B7806289BF80910101813079F162
:103BC00080912B01213011F48C5F01C08F5F8093B5
:103BD0002B0180912B01803F11F410922B018091D9
:103BE0002B016CE30E94E7209923C9F480911A010C
:103BF0008F5F80931A01803F11F490931A01809196
:103C00001A016CE00E94E720992349F48091360163
:103C10008F5F80933601803F11F4909336019F911E
:103C20008F917F916F913F912F910F900FBE0F90C9
:103C30001F9018951F920F920FB60F9211242F9379
:103C40003F934F935F936F937F938F939F93AF9324
:103C5000BF93EF93FF931092250120912A01509179
:103C600023012223C1F484B58093040150930601FB
:103C70000D9B05C0109208011092070173C080E0EF
:103C800090E8909308018093070181E080932A01D6
:103C90008093090167C094B5909305018091060156
:103CA00040910401851721F0941B5093060101C037
:103CB000941B8091050180930401892F82508330E9
:103CC00020F4809109018F5F06C09650933038F53B
:103CD000809109018E5F8093090180FF22C00D99B8
:103CE00018C0332727FD30958FE090E0821B930B9F
:103CF00021E030E002C0220F331F8A95E2F7809165
:103D0000070190910801822B932B909308018093D7
:103D1000070180912A018F5F80932A0102C01092CF
:103D20002A0180912A018E30E9F420910701309117
:103D3000080137FF15C036FF13C0832F99278F71F5
:103D40009070892B69F4C90196958795969587950A
:103D500035FF03C08F73806801C08F730E944615C2
:103D600010922A01FF91EF91BF91AF919F918F9196
:103D70007F916F915F914F913F912F910F900FBE67
:103D80000F901F90189580918A00826080938A001E
:103D900080917D00806280937D0083B78A6083BFBD
:103DA0008FEF81BF85B5866085BD87B7806487BF8B
:103DB0008FB58E6F8FBD8EB589618EBD87E290E025
:103DC00097BD86BD9BBD8ABD99BD88BD9093790086
:103DD000809378000895CFEFD0E1DEBFCDBFD09AB9
:103DE00087B3806E87BBD8980E945A1F0E94C31E5B
:103DF00089E190E00E9419158AB784608ABF89B76B
:103E0000806289BF8EE08093180180E090E0FC0121
:103E10003197F1F70197F1F780E00E94601F68E0A9
:103E20008DE291E00E946F2080912D018F77682FA5
:103E300080E00E949D1F61E987E00E949D1F8091A4
:103E40002F018F7180932F01CDE2D1E017E088819F
:103E50000E94C0208993115017FFF9CF30912D0196
:103E6000832F9927880F991F880F991F80932B0103
:103E700040912E01242F220F220F832F6FE00E94EA
:103E8000E720280F20931A0180912F016CE00E94F7
:103E9000E72084E1989F90011124842F63E00E9421
:103EA000E720820F80933601D89A81E08093190130
:103EB0007894FFCF88E48093700010927100089589
:103EC000482F84EA80937400809174008823E4F77B
:103ED0008091710099279C012870307083FD02C089
:103EE000C901089580ED8093730084E88093740085
:103EF000809174008823E4F780917100992788717C
:103F000090700097C9F04093730084E88093740028
:103F1000809174008823E4F780917100992788725A
:103F20009070009749F084E98093740080EA9FE0E4
:103F30000197F1F781E090E00895482F84EA80939B
:103F40007400809174008823E4F7809171009927B0
:103F50009C012870307083FD02C0C901089580ED76
:103F60008093730084E880937400809174008823A8
:103F7000E4F780917100992788719070009749F15A
:103F80004093730084E880937400809174008823C8
:103F9000E4F7809171009927887290700097C9F0BA
:103FA0006093730084E88093740080917400882388
:103FB000E4F780917100992788729070009749F01A
:103FC00084E98093740080EA9FE00197F1F781E033
:103FD00090E00895582F84EA8093740080917400D3
:103FE0008823E4F78091710099279C012870307034
:103FF00083FD02C0C901089580ED8093730084E8B9
:1040000080937400809174008823E4F7809171009C
:10401000992788719070009799F15093730084E804
:1040200080937400809174008823E4F7809171007C
:10403000992788729070009719F120E02417B8F43E
:1040400034E8FB01E20FF11D80818093730030930F
:104050007400809174008823E4F78091710099279F
:1040600088729070009761F02F5F241750F384E9F5
:104070008093740080EA9FE00197F1F781E090E07F
:10408000089521E084EA809374008091740088236D
:10409000E4F78091710083FF1BC020EF81ED8093D6
:1040A000730084E880937400809174008823E4F79F
:1040B0008091710086FF0CC084E880937400809129
:1040C00074008823E4F72091730084E980937400DE
:1040D00080EA9FE00197F1F7822F99270895DC018C
:1040E00084EA80937400809174008823E4F78091BF
:1040F000710083FF37C081ED8093730084E8809363
:104100007400809174008823E4F78091710086FF29
:1041100029C020E0772761507040161617069CF4DE
:1041200034EC30937400809174008823E4F7FD012F
:10413000E20FF11D8091730080832F5F822F9927FA
:104140008617970774F384E8809374008091740055
:104150008823E4F7A20FB11D809173008C9384E94A
:104160008093740080EA9FE00197F1F708950E9420
:104170009D1F08950E94601F0E9441209927089565
:10418000482F82958F70282F3327C90153E0880F5D
:10419000991F5A95E1F7820F931F820F931F4F705B
:1041A000480F842F99270895382F4AE0642F0E94E2
:1041B000E720292F832F0E94E720992764E0880FAA
:1041C000991F6A95E1F7282B822F99270895991B4B
:1041D00079E004C0991F961708F0961B881F7A95FE
:1041E000C9F780950895AA1BBB1B51E107C0AA1F00
:1041F000BB1FA617B70710F0A61BB70B881F991F88
:0E4200005A95A9F780959095BC01CD010895BF
:00000001FF
