:100000000C94C4340C94E1340C94E1340C94E13439
:100010000C94E1340C94E1340C940F480C94E134CA
:100020000C94E1340C94E1340C948E470C94E1343C
:100030000C94E1340C94E1340C94E1340C94583772
:100040000C94E1340C94E1340C94E1340C94E134DC
:100050000C94E1340C94E1340C94E1340C94E134CC
:100060000C94E1340C94FC360C94E1340C94E1349F
:100070000C94E1340C94E1340C94BB360C94E134D0
:100080000C94E1340C94E1340C94E134E945D2450C
:10009000C445B045A2458D457F456A455C45474509
:1000A000394524450345D444D143D042CF41B940DA
:1000B000A33F083FEA3E7C3E2B3EF33DDD3DB93D8C
:1000C000543DEE3C883C223CBC3B563B272727272F
:1000D0002727272727272700000000002727272773
:1000E0002727272727272727270000000000272763
:1000F0002727272727272727272727272727272790
:10010000272727272727272727272727272727277F
:100110002727272727270000000000272727272435
:10012000242424242727272727272727272727276B
:1001300027080808080827272727272727272727EA
:10014000272727141414141427272727000000003A
:100150000027272727000000000027272727000067
:100160000000002727272700000000002727272757
:1001700000000000002727272724242424242727E1
:1001800027272727272727272727270000000000C2
:1001900027272727000000000027272727272727B2
:1001A00027272727272700000000002727272727A2
:1001B000272727272727272714141414142727272E
:1001C0002716161616162727272727272727272714
:1001D00027272720202020202727282727272727D1
:1001E000272728282727272727272728282727279B
:1001F0002727272728282827272727272828282789
:1002000027000000272728282827272727272828EE
:1002100028282700000027282828272727272727DE
:100220002728282827272727272828282827272757
:100230002727282828272727272727272828282748
:1002400000000027282828272724242427272828B7
:100250002727272727272728282827080808272887
:100260002828282727272727282828272714141451
:1002700027272828282700000027282828282700A3
:1002800000002728282827270000002727282828BB
:1002900027000000272828282727000000272728D4
:1002A00028272724242427272828282727272727E3
:1002B000282828272700000027272828272700008C
:1002C00000272728282827272727272828282727DF
:1002D000000000272728282827272727272828281D
:1002E0002727141414272728282727161616272708
:1002F000282828272727272728282827272020209D
:100300002727282828272727272728282828272776
:100310002727272828282827272727272828282865
:10032000272700272728282828272727272728287E
:10033000282827272727272828282827270027276E
:100340002828282827272727272828282827272735
:10035000272728282828272700272728282828274C
:100360002727272728282828272727272728282816
:10037000282727002727282828282727272727282E
:10038000282828272727272728282828272700271D
:1003900027282828282727272727282828282727E5
:1003A00027272728282828272700272728282828FC
:1003B00027272727272828282827272727272828C7
:1003C00028282727002727282828282727272727DE
:1003D00028282828272727272728282828272700CC
:1003E0002727282828282727272727282828282795
:1003F00027272727282828282727002727282828AD
:100400002827272727272828282827272727272876
:10041000282828272700272728282828272727278C
:100420002728282828272727272728282828282753
:100430000027282828282828272727282828282868
:100440002827272728282800000000000000000097
:10045000000000000000000000000000000000009C
:1004600000000000000000000000002727272727C9
:100470002700000000000000000000000000000055
:10048000000000000000000000000000000000006C
:10049000000000000000000000000000000000005C
:1004A000000000000000000000000000000000004C
:1004B000000000000000000000000000000000003C
:1004C000000000000000000000000000000000002C
:1004D000000000000000000000000000000000001C
:1004E000000000000000000000000000000000000C
:1004F00000000000000000000000000000000000FC
:1005000000000000000000000000000000000000EB
:1005100000000000000000000000000000000000DB
:1005200000000000000000000000000000000000CB
:1005300000000000000000000000000000000000BB
:1005400000000000000000000000000000000000AB
:1005500000000000000000000000002727272727D8
:100560002700000000000000000000000000000064
:10057000000000000000000000000000000000007B
:10058000000000000000000000000000000000006B
:10059000000000000000000000000000000000005B
:1005A000000000000000000000000000000000004B
:1005B000000000000000000000000000000000003B
:1005C000000000000000000000000000000000002B
:1005D000000000000000000000000000000000001B
:1005E000000000000000000000000000000000000B
:1005F00000000000000000000000000000000000FB
:1006000000000000000000000000000000000000EA
:1006100000000000000000000000000000000000DA
:1006200000000000000000000000000000000000CA
:1006300000000000000000000000000000000000BA
:1006400000000000000000000000000000000000AA
:10065000000000000000000000000000000000009A
:10066000000000000000000000000000000000008A
:10067000000000000000000000000000000000007A
:10068000000000000000000000000000000000006A
:10069000000000000000000000000000000000005A
:1006A000000000000000000000000000000000004A
:1006B000000000000000000000000000000000003A
:1006C0000000000000000000002727272727270040
:1006D000000000000000000000000000000000001A
:1006E000000000000000000000000000000000000A
:1006F00000000000000000000000000000000000FA
:1007000000000000000000000000000000000000E9
:1007100000000000000000000000000000000000D9
:1007200000000000000000000000000000000000C9
:1007300000000000000000000000000000000000B9
:1007400000000000000000000000000000000000A9
:100750000000000000000000000000000000000099
:100760000000000000000000000000000000000089
:100770000000000000000000000000000000000079
:100780000000000000000000000000000000000069
:100790000000000000000000000000000000000059
:1007A0000000000000000000000000000000000049
:1007B000000000000000000000272727272727004F
:1007C0000000000000000000000000000000000029
:1007D0000000000000000000000000000000000019
:1007E0000000000000000000000000000000000009
:1007F00000000000000000000000000000000000F9
:1008000000000000000000272727272727260000D8
:1008100000000000000000000000000000000000D8
:1008200000000000000000000000000000000000C8
:1008300000000000000000000000000000000000B8
:1008400000000000000000000000000000000000A8
:100850000000000000000000000000000000002672
:100860002727272727272600000000000000000078
:10087000000000000000000000000000000026272B
:10088000272727272726000000000000000000007F
:1008900000000000000000000000000000262727E4
:1008A0002727272726000000000000000000000086
:1008B0000000000000000000000000000000000038
:1008C0000000000000000000000000000000000028
:1008D0000000000000000000000000000000000018
:1008E0000000000000000000000000000000000008
:1008F00000000000000026272727272727260000C2
:1009000000000000000000000000000000000000E7
:1009100000000000000000000000000000000000D7
:1009200000000000000000000000000000000000C7
:1009300000000000000000000000000000000000B7
:100940000000000000000000000000000000002681
:100950002727272727272600000000000000000087
:10096000000000000000000000000000000026273A
:10097000272727272726000000000000000000008E
:1009800000000000000000000000000000262727F3
:100990002727272726000000000000000000000095
:1009A0000000000000000000000000000000000047
:1009B0000000000000000000000000000000000037
:1009C0000000000000000000000000000000000027
:1009D0000000000000000000000000000000000017
:1009E00000000000000026010101010101010101D8
:1009F00001010101010101010101010101010101E7
:100A000001010101010101010101010101010101D6
:100A100001010101010101010101010101010101C6
:100A200001010101010101010101010101010101B6
:100A300001010101010101010101010101010101A6
:100A400001010102030405060708090A0B0C0D0E3B
:100A50000F101112131415161718191A1B1C1D1E2E
:100A60001F00000000000000000000000000000067
:100A70000000000000000000000000000000000076
:100A80000000000000000000000000000000000066
:100A90000000000000000000000000000000000056
:100AA0000000000000000000000000000000000046
:100AB0000000000000000000000000000000000036
:100AC0000000000000000000000000000000000026
:100AD000000000000000000101010101010101010D
:100AE00001010101010101010101010101010101F6
:100AF00001010101010101010101010101010101E6
:100B000001010101010101010101010101010101D5
:100B100001010101010101010101010101010101C5
:100B200001010101010101010101010101010101B5
:100B300001010102030405060708090A0B0C0D0E4A
:100B40000F101112131415161718191A1B1C1D1E3D
:100B50001F00000000000000000000000000000076
:100B60000000000000000000000000000000000085
:100B70000000000000000000000000000000000075
:100B80000000000000000000000000000000000065
:100B90000000000000000000000000000000000055
:100BA0000000000000000000000000000000000045
:100BB0000000000000000000000000000000000035
:100BC00000000000000000272727272727272727C6
:100BD00027272727272727272727272727272727A5
:100BE00027272727272727272727272727272600BD
:100BF00000000000000000000000000000000000F5
:100C000000000000000000000000000000000000E4
:100C100000000000000000000000000000000000D4
:100C200000000000000000000000000000000000C4
:100C300000000000000000000000000000000000B4
:100C400000000000000000000000000000000000A4
:100C50000000000000000000000000000000000094
:100C60000000000000000000000000000000000084
:100C70000000000000000000000000000000000074
:100C8000000000000000000000000000000000263E
:100C900027272727272727272727272727272727E4
:100CA00027272727272727272727272727272727D4
:100CB00027272727272727272727272727272727C4
:100CC00027272727272727272727272727272727B4
:100CD00027272727272727272727272727272600CC
:100CE0000000000000000000000000000000000004
:100CF00000000000000000000000000000000000F4
:100D000000000000000000000000000000000000E3
:100D100000000000000000000000000000000000D3
:100D200000000000000000000000000000000000C3
:100D300000000000000000000000000000000000B3
:100D400000000000000000000000000000000000A3
:100D50000000000000000000000000000000000093
:100D60000000000000000000000000000000000083
:100D7000000000000000000000000000000000264D
:100D800027272727272727272727272727272727F3
:100D900027272727272727272727272727272727E3
:100DA0002727272727272700000000000000000032
:100DB0000000000000000000000000000000000033
:100DC0000000000000000000000000000000000023
:100DD0000000000000000000000000000000000013
:100DE0000000000000000000000000000000000003
:100DF0000000000000000026272727272727272795
:100E00002727272727272727272727272727272772
:100E10002727272727272727272727272727272762
:100E20002727272727272727272727272727272752
:100E30002727272727272727272727272727272742
:100E40002727272727272600000000000000000092
:100E50000000000000000000000000000000000092
:100E60000000000000000000000000000000000082
:100E70000000000000000000000000000000000072
:100E80000000000000000000000000000000000062
:100E90000000000000000000000000000000000052
:100EA0000000000000000000000000000000000042
:100EB0000000000000000000000000000000000032
:100EC0000000000000000000000000000000000022
:100ED0000000000000000000000000000000000012
:100EE00000000000000000262727272727272727A4
:100EF0002727272727272727272727272727272782
:100F00002727272727272727272727272727272771
:100F10002727272727272727272727272727272761
:100F20002727272727272727272727272727272751
:100F300027272727272726000000000000000000A1
:100F400000000000000000000000000000000000A1
:100F50000000000000000000000000000000000091
:100F60000000000000000000000000000000000081
:100F70000000000000000000000000000000000071
:100F80000000000000000027272727272727272702
:100F9000272727272700000000000000000000008E
:100FA0000000000000000000000000000000000041
:100FB0000000000000272727272727272727272784
:100FC00027272727272727272727272727272727B1
:100FD00027000000000000000000000000000000EA
:100FE0000000000000000000000000000000000001
:100FF00000272727272727272727272727272727A8
:1010000027272727272727272727272727000000E5
:1010100000000000000000000000000000000000D0
:10102000000000000000000000000000002727274B
:101030002727272727272727272727272727272740
:101040002727272727272727270000000000000041
:101050000000000000000000000000000000000090
:10106000000000000000000000272727272727276F
:101070002727272727272727272727272727272700
:10108000272727272700000000000000000000009D
:101090000000000000000000000000000000000050
:1010A0000000000000272727272727272727272793
:1010B00027272727272727272727272727272727C0
:1010C00027000000000000000000000000000000F9
:1010D0000000000000000000000000000000000010
:1010E00000272727272727272727272727272727B7
:1010F00027272727272727272727272727000000F5
:1011000000000000000000000000000000000000DF
:10111000000000000000000000000000002727275A
:10112000272727272727272727272727272727274F
:101130002727272727272727270000000000000050
:10114000000000000000000000000000000000009F
:10115000000000000000000000272727272727277E
:10116000272727272727270000000000000000006E
:101170000000000000000027272727272727272710
:1011800027272727272727272727272727272727EF
:1011900027272700000000000000000000000000DA
:1011A000000000000000000000000000000000003F
:1011B0000000002727272727272727272727272734
:1011C00027272727272727272727272727272700D6
:1011D000000000000000000000000000000000000F
:1011E00000000000000000000000000000000027D8
:1011F000272727272727272727272727272727277F
:101200002727272727272727272727000000000031
:1012100000000000000000000000000000000000CE
:1012200000000000000000000000002727272727FB
:10123000272727272727272727272727272727273E
:10124000272727272727270000000000000000008D
:10125000000000000000000000000000000000008E
:10126000000000000000002727272727272727271F
:1012700027272727272727272727272727272727FE
:1012800027272700000000000000000000000000E9
:10129000000000000000000000000000000000004E
:1012A0000000002727272727272727272727272743
:1012B00027272727272727272727272727272700E5
:1012C000000000000000000000000000000000001E
:1012D00000000000000000000000000000000027E7
:1012E000272727272727272727272727272727278E
:1012F0002727272727272727272727000000000041
:1013000000000000000000000000000000000000DD
:10131000000000000000000000000027272727270A
:10132000272727272727272727272727272727274D
:10133000272727272727270000000000000000009C
:10134000000000000000002727272727272727273E
:10135000272727272727272727272727272727271D
:10136000272727272727272727272727272727270D
:101370002727272727272727272727272727270024
:10138000000000000000000000000000000000005D
:1013900000000000000000272727272727272727EE
:1013A00027272727272727272727272727272727CD
:1013B00027272727272727272727272727272727BD
:1013C00027272727272727272727272727272700D4
:1013D000000000000000000000000000000000000D
:1013E000000000000000002727272727272727279E
:1013F000272727272727272727272727272727277D
:10140000272727272727272727272727272727276C
:101410002727272727272727272727272727270083
:1014200000000000000000000000000000000000BC
:10143000000000000000002727272727272727274D
:10144000272727272727272727272727272727272C
:10145000272727272727272727272727272727271C
:101460002727272727272727272727272727270033
:10147000000000000000000000000000000000006C
:1014800000000000000000272727272727272727FD
:1014900027272727272727272727272727272727DC
:1014A00027272727272727272727272727272727CC
:1014B00027272727272727272727272727272700E3
:1014C000000000000000000000000000000000001C
:1014D00000000000000000272727272727272727AD
:1014E000272727272727272727272727272727278C
:1014F000272727272727272727272727272727277C
:101500002727272727272727272727272727270092
:1015100000000000000000000000000000000000CB
:1015200000000000000000000000000000000000BB
:1015300000000000000000000000000000000000AB
:101540000027272727272727272727272727272752
:10155000272727272727272727272727272727271B
:10156000272727272727272727272727272727270B
:10157000272727272727270000000000000000005A
:10158000000000000000000000000000000000005B
:101590000027272727272727272727272727272702
:1015A00027272727272727272727272727272727CB
:1015B00027272727272727272727272727272727BB
:1015C000272727272727270000000000000000000A
:1015D000000000000000000000000000000000000B
:1015E00000272727272727272727272727272727B2
:1015F000272727272727272727272727272727277B
:10160000272727272727272727272727272727276A
:1016100027272727272727000000000000000000B9
:1016200000000000000000000000000000000000BA
:101630000027272727272727272727272727272761
:10164000272727272727272727272727272727272A
:10165000272727272727272727272727272727271A
:101660002727272727272700000000000000000069
:10167000000000000000000000000000000000006A
:101680000027272727272727272727272727272711
:1016900027272727272727272727272727272727DA
:1016A00027272727272727272727272727272727CA
:1016B0002727272727272700000000000000000019
:1016C000000000000000000000000000000000001A
:1016D00000272727272727272727272727272727C1
:1016E000272727272727272727272727272727278A
:1016F000272727272727272727272727272727277A
:101700002727272727272727272727272727272769
:10171000272727270000000000000000000000002D
:10172000000000000000000000000000000027276B
:101730002727272727272727272727272727272739
:1017400027272727000000000000000000000000FD
:10175000000000000000000000000000000027273B
:101760002727272727272727272727272727272709
:1017700027272727000000000000000000000000CD
:10178000000000000000000000000000000027270B
:1017900027272727272727272727272727272727D9
:1017A000272727270000000000000000000000009D
:1017B00000000000000000000000000000002727DB
:1017C00027272727272727272727272727272727A9
:1017D000272727270000000000000000000000006D
:1017E00000000000000000000000000000002727AB
:1017F0002727272727272727272727272727272779
:10180000272727270000000000000000000000003C
:10181000000000000000000000000000000027277A
:101820002727272727272727272727272727272748
:10183000272727270000000000000000000000000C
:10184000000000000000000000000000000027274A
:101850002727272727272727272727272727272718
:1018600027272727000000000000000000000000DC
:10187000000000000000000000000000000027271A
:1018800027272727272727272727272727272727E8
:1018900027272727000000000000000000000000AC
:1018A00000000000000000000000000000002727EA
:1018B00027272727272727272727272727272727B8
:1018C000272727270000000000000000000000007C
:1018D00000000000000000000000000000002727BA
:1018E00027272727272727000000000000000000E7
:1018F000000000000027272727272727272727273B
:1019000027272727272727272727272727000000DC
:1019100000000000000000000000000000000000C7
:10192000000000000027272727272727272727270A
:1019300027272727272727272727272727000000AC
:101940000000000000000000000000000000000097
:1019500000000000002727272727272727272727DA
:10196000272727272727272727272727270000007C
:101970000000000000000000000000000000000067
:1019800000000000002727272727272727272727AA
:10199000272727272727272727272727270000004C
:1019A0000000000000000000000000000000000037
:1019B000000000000027272727272727272727277A
:1019C000272727272727272727272727270000001C
:1019D0000000000000000000000000000000000007
:1019E000000000000027272727272727272727274A
:1019F00027272727272727272727272727000000EC
:101A000000000000000000000000000000000000D6
:101A10000000000000272727272727272727272719
:101A200027272727272727272727272727000000BB
:101A300000000000000000000000000000000000A6
:101A400000000000002727272727272727272727E9
:101A5000272727272727272727272727270000008B
:101A60000000000000000000000000000000000076
:101A700000000000002727272727272727272727B9
:101A8000272727272727272727272727270000005B
:101A90000000000000000000000000000000000046
:101AA0000000000000272727272727272727272789
:101AB000272727272727272727272727270000002B
:101AC00000000000000000272727272727272727B7
:101AD00027270000000000000000000000000000B8
:101AE0000000000000272727272727272727272749
:101AF000272727270000000000000000000000004A
:101B0000000000000000000027272727272727279D
:101B100027272727272727000000000000000000B4
:101B200000000000000000000000272727272727CB
:101B30002727272727272727270000000000000046
:101B400000000000000000000000000027272727F9
:101B500027272727272727272727270000000000D8
:101B60000000000000000000000000000000272727
:101B7000272727272727272727272727270000006A
:101B80000000000000000000000000000000000055
:101B900000272727272727272727272727272727FC
:101BA0000000000000000000000000000000000035
:101BB000000000272727272727272727272727272A
:101BC00027270000000000000000000000000000C7
:101BD0000000000000272727272727272727272758
:101BE0002727272700000000000000000000000059
:101BF00000000000000000002727272727272727AD
:101C000027272727272727000000000000000000C3
:101C100000000000000000000000272727272727DA
:101C20002727272727272727270000000000000055
:101C30000000000000000000000000002727272708
:101C400027272727272727272727270000000000E7
:101C50000000000000000000000000000000272736
:101C60002727272727272727272727272700000079
:101C70000000000000000000000000000000000064
:101C8000002727272727272727272727272727270B
:101C90000000000000000000000000000000000044
:101CA0000000002727272700000000000000000098
:101CB0000000002727272727272727272727272729
:101CC0002727272700000000000000000000000078
:101CD0000000000000272727272727272727272757
:101CE00027272727272727000000000000000000E3
:101CF00000000000000000002727272727272727AC
:101D00002727272727272727270000000000000074
:101D100000000000000000000000272727272727D9
:101D20002727272727272727272727000000000006
:101D30000000000000000000000000002727272707
:101D40002727272727272727272727272700000098
:101D50000000000000000000000000000000272735
:101D60002727272727272727272727272727272703
:101D70000000000000000000000000000000000063
:101D8000002727272727272727272727272727270A
:101D900027270000000000000000000000000000F5
:101DA0000000002727272727272727272727272738
:101DB0002727272700000000000000000000000087
:101DC0000000000000272727272727272727272766
:101DD00027272727272727000000000000000000F2
:101DE00000000000000000002727272727272727BB
:101DF0002727272727272727270000000000000084
:101E000000000000000000000000272727272727E8
:101E10002727272727272727272727000000000015
:101E20000000000000000000000000002727272716
:101E300027272727272727272727272727000000A7
:101E40000000000000000000000000000000272744
:101E50002727272727272727272727272727272712
:101E60000000000000000000000000000000000072
:101E70000027272727272727272727272727272719
:101E800027270000000000272727272727272727A5
:101E90002727272727272727272727272727000020
:101EA0000000000000000000000000002727272796
:101EB00027272727272727272727272727272727B2
:101EC00027272727272727272727272727272727A2
:101ED000272727272727272727270000000000007C
:101EE00000000000000000002727272727272727BA
:101EF0002727272727272727272727272727272772
:101F00002727272727272727272727272727272761
:101F100027272727272700000000000000000000D7
:101F200000000000272727272727272727272727DD
:101F30002727272727272727272727272727272731
:101F40002727272727272727272727272727272721
:101F50002727000000000000000000000000000033
:101F60002727272727272727272727272727272701
:101F700027272727272727272727272727272727F1
:101F8000272727272727272727272727272700002F
:101F900000000000000000000000000027272727A5
:101FA00027272727272727272727272727272727C1
:101FB00027272727272727272727272727272727B1
:101FC000272727272727272727270000000000008B
:101FD00000000000000000002727272727272727C9
:101FE0002727272727272727272727272727272781
:101FF0002727272727272727272727272727272771
:1020000027272727272700000000000000000000E6
:1020100000000000272727272727272727272727EC
:102020002727272727272727272727272727272740
:102030002727272727272727272727272727272730
:102040002727000000000000000000000000000042
:102050002727272727272727272727272727272710
:102060002727272727272700000000000000272711
:1020700027272727272727272727272727272727F0
:1020800027272727272727272727272727272727E0
:10209000272727272727272727272727000000006C
:1020A0000000000000000000000027272727272746
:1020B00027272727272727272727272727272727B0
:1020C00027272727272727272727272727272727A0
:1020D00027272727272727270000000000000000C8
:1020E000000000000000272727272727272727276A
:1020F0002727272727272727272727272727272770
:10210000272727272727272727272727272727275F
:102110002727272700000000000000000000000023
:10212000000027272727272727272727272727278D
:10213000272727272727272727272727272727272F
:10214000272727272727272727272727272727271F
:102150000000000000000000000000000000272731
:1021600027272727272727272727272727272727FF
:1021700027272727272727272727272727272727EF
:10218000272727272727272727272727000000007B
:102190000000000000000000000027272727272755
:1021A00027272727272727272727272727272727BF
:1021B00027272727272727272727272727272727AF
:1021C00027272727272727270000000000000000D7
:1021D0000000000000002727272727272727272779
:1021E000272727272727272727272727272727277F
:1021F000272727272727272727272727272727276F
:102200002727272700000000000000000000000032
:10221000000027272727272727272727272727279C
:10222000272727272727272727272727272727273E
:10223000272727272727272727272727272727272E
:10224000000000000000002727272727272727272F
:10225000272727272727272727272727272727270E
:1022600027272727272727272727270000000000C1
:1022700000000000000000272727272727272727FF
:1022800027272727272727272727272727272727DE
:102290002727272727272727272727000000000091
:1022A00000000000000000272727272727272727CF
:1022B00027272727272727272727272727272727AE
:1022C0002727272727272727272727000000000061
:1022D000000000000000002727272727272727279F
:1022E000272727272727272727272727272727277E
:1022F0002727272727272727272727000000000031
:10230000000000000000002727272727272727276E
:10231000272727272727272727272727272727274D
:102320002727272727272727272727000000000000
:10233000000000000000002727272727272727273E
:10234000272727272727272727272727272727271D
:1023500027272727272727272727270000000000D0
:10236000000000000000002727272727272727270E
:1023700027272727272727272727272727272727ED
:1023800027272727272727272727270000000000A0
:1023900000000000000000272727272727272727DE
:1023A00027272727272727272727272727272727BD
:1023B0002727272727272727272727000000000070
:1023C00000000000000000272727272727272727AE
:1023D000272727272727272727272727272727278D
:1023E0002727272727272727272727000000000040
:1023F000000000000000002727272727272727277E
:10240000272727272727272727272727272727275C
:10241000272727272727272727272700000000000F
:1024200000000000000000000000000000000000AC
:1024300000000027272727272727272727272727A1
:10244000272727272727272727272727272727271C
:10245000272727272727270000000000000000006B
:102460000000002727272727272727272727272771
:1024700027272727272727272727272727272727EC
:10248000272727272727270000000000000000003B
:102490000000002727272727272727272727272741
:1024A00027272727272727272727272727272727BC
:1024B000272727272727270000000000000000000B
:1024C0000000002727272727272727272727272711
:1024D000272727272727272727272727272727278C
:1024E00027272727272727000000000000000000DB
:1024F00000000027272727272727272727272727E1
:10250000272727272727272727272727272727275B
:1025100027272727272727000000000000000000AA
:1025200000000027272727272727272727272727B0
:10253000272727272727272727272727272727272B
:10254000272727272727270000000000000000007A
:102550000000002727272727272727272727272780
:1025600027272727272727272727272727272727FB
:10257000272727272727270000000000000000004A
:102580000000002727272727272727272727272750
:1025900027272727272727272727272727272727CB
:1025A000272727272727270000000000000000001A
:1025B0000000002727272727272727272727272720
:1025C000272727272727272727272727272727279B
:1025D00027272727272727000000000000000000EA
:1025E00000000027272727272727272727272727F0
:1025F000272727272727272727272727272727276B
:10260000272727272727272727272727272727275A
:10261000272727272727272727272727272727274A
:10262000272700000000000000272727272727274B
:10263000272727272727272727272727272727272A
:102640002727272700000000000000002727272752
:10265000272727272727272727272727272727270A
:10266000272727272727270000000000000027270B
:1026700027272727272727272727272727272727EA
:1026800027272727272727272700000000000000EB
:1026900027272727272727272727272727272727CA
:1026A000272727272727272727272700000000007D
:1026B00000002727272727272727272727272727F8
:1026C000272727272727272727272727270000000F
:1026D000000000000027272727272727272727274D
:1026E000272727272727272727272727272727277A
:1026F000000000000000002727272727272727277B
:102700002727272727272727272727272727272759
:10271000272700000000000000272727272727275A
:102720002727272727272727272727272727272739
:102730002727272700000000000000002727272761
:102740002727272727272727272727272727272719
:10275000272727272727270000000000000027271A
:1027600027272727272727272727272727272727F9
:1027700027272727272727272700000000000000FA
:1027800027272727272727272727272727272727D9
:10279000272727272727272727272700000000008C
:1027A0000000272727272727272727272727272707
:1027B000272727272727272727272727270000001E
:1027C000000000000027272727272727272727275C
:1027D0002727272727272727272727272727272789
:1027E00000000000000000000000000000000027C2
:1027F0002727272727272727272727272727272769
:102800002727272727272727270000000000000069
:10281000002727272727272727272727272727276F
:1028200027272727272727272727272700000000D4
:1028300000000000272727272727272727272727C4
:102840002727272727272727272727272727000066
:1028500000000000000027272727272727272727F2
:1028600027272727272727272727272727272727F8
:102870000000000000000000272727272727272720
:1028800027272727272727272727272727272727D8
:102890002727000000000000000027272727272700
:1028A00027272727272727272727272727272727B8
:1028B00027272727270000000000000000272727E0
:1028C0002727272727272727272727272727272798
:1028D00027272727272727000000000000000027C0
:1028E0002727272727272727272727272727272778
:1028F0002727272727272727270000000000000079
:10290000002727272727272727272727272727277E
:1029100027272727272727272727272700000000E3
:1029200000000000272727272727272727272727D3
:102930002727272727272727272727272727000075
:102940000000000000002727272727272727272701
:102950002727272727272727272727272727272707
:10296000000000000000000027272727272727272F
:1029700027272727272727272727272727272727E7
:10298000272700000000000000002727272727270F
:1029900027272727272727272727272727272727C7
:1029A00027272727270000000000000000272727EF
:1029B00027272727272727272727272727272727A7
:1029C0002727272727272727272727272727272797
:1029D000272727272727270000000000272727274A
:1029E00027272727272727272727272727000000EC
:1029F00000002727272727272727272727272727B5
:102A00002727270000000000272727272727272719
:102A10002727272727272727270000000000272709
:102A2000272727272727272727272727272727005D
:102A300000000000272727272727272727272727C2
:102A400027272727270000000000272727272727D9
:102A500027272727272727272727000000000027C9
:102A600027272727272727272727272727272727F6
:102A700000000000002727272727272727272727A9
:102A80002727272727270000000000272727272799
:102A90002727272727272727272727270000000062
:102AA00000272727272727272727272727272727DD
:102AB0002727000000000027272727272727272769
:102AC0002727272727272700000000002727272759
:102AD00027272727272727272727272727000000FB
:102AE00000002727272727272727272727272727C4
:102AF0002727270000000000272727272727272729
:102B00002727272727272727270000000000272718
:102B1000272727272727272727272727272727006C
:102B200000000000272727272727272727272727D1
:102B300027272727270000000000272727272727E8
:102B400027272727272727272727000000000027D8
:102B50002727272727272727272727272727272705
:102B600000000000002727272727272727272727B8
:102B700027272727272700000000002727272727A8
:102B80002727272727272727272727270000000071
:102B900000272727272727272727272727272727EC
:102BA000272700000000000000000000272727273B
:102BB0002727272727272727272727270000000041
:102BC00000272727272727272727272727272727BC
:102BD0002727000000000027272727272727272748
:102BE0002727272727272727000000000027272738
:102BF00027272727272727272727272727270000B3
:102C000000000027272727272727272727272727C9
:102C10002727272700000000002727272727272707
:102C200027272727272727272727000000000027F7
:102C3000272727272727272727272727272727004B
:102C400000000000272727272727272727272727B0
:102C500027272727270000000000272727272727C7
:102C600027272727272727272727270000000000B7
:102C700027272727272727272727272727272727E4
:102C80002700000000002727272727272727272797
:102C90002727272727272700000000002727272787
:102CA0002727272727272727272727270000000050
:102CB00000272727272727272727272727272727CB
:102CC0002727000000000027272727272727272757
:102CD0002727272727272727000000000027272747
:102CE00027272727272727272727272727270000C2
:102CF00000000027272727272727272727272727D9
:102D00002727272700000000002727272727272716
:102D10002727272727272727272700000000002706
:102D2000272727272727272727272727272727005A
:102D300000000000272727272727272727272727BF
:102D400027272727270000000000272727272727D6
:102D500027272727272727272727270000000000C6
:102D600027272727272727272727272727272727F3
:102D700027000000000027272727272727272727A6
:102D80002727272727272727010101010101010103
:102D90000101010101010101010101010101010123
:102DA0000101010101010101010101010101010113
:102DB0000101010101010101010101010101010103
:102DC00001010101010101010101010101010101F3
:102DD00001010101010101010101010101010101E3
:102DE00001010101010101010101010101010101D3
:102DF00001010101010101010101010101010103C1
:102E00000303030303030303030303030303030392
:102E10000303030303030303030303030303030382
:102E20000303030303030303030303030303030372
:102E30000303030303030303030303030303030362
:102E40000303030303030303030303030303030352
:102E50000303030303030303030303030303030342
:102E60000303030303030303030303030303030332
:102E7000030303030303032701010101010101010E
:102E80000101010101010101010101010101010132
:102E90000101010101010101010101010101010122
:102EA0000101010101010101010101010101010112
:102EB0000101010101010101010101010101010102
:102EC00001010101010101010101010101010101F2
:102ED00001010101010101010101010101010101E2
:102EE00001010101010101010101010101010103D0
:102EF00003030303030303030303030303030303A2
:102F00000303030303030303030303030303030391
:102F10000303030303030303030303030303030381
:102F20000303030303030303030303030303030371
:102F30000303030303030303030303030303030361
:102F40000303030303030303030303030303030351
:102F50000303030303030303030303030303030341
:102F600003030303030303270707070707070707ED
:102F700007070707070707070707070707070707E1
:102F800007070707070707070707070707070707D1
:102F900007070707070707070707070707070707C1
:102FA00007070707070707070707070707070707B1
:102FB00007070707070707070707070707070707A1
:102FC0000707070707070707070707070707070791
:102FD0000707070707070707070707070707070B7D
:102FE0000B0B0B0B0B0B0B0B0B0B0B0B0B0B0B0B31
:102FF0000B0B0B0B0B0B0B0B0B0B0B0B0B0B0B0B21
:103000000B0B0B0B0B0B0B0B0B0B0B0B0B0B0B0B10
:103010000B0B0B0B0B0B0B0B0B0B0B0B0B0B0B0B00
:103020000B0B0B0B0B0B0B0B0B0B0B0B0B0B0B0BF0
:103030000B0B0B0B0B0B0B0B0B0B0B0B0B0B0B0BE0
:103040000B0B0B0B0B0B0B0B0B0B0B0B0B0B0B0BD0
:103050000B0B0B0B0B0B0B270707070707070707C4
:1030600007070707070707070707070707070707F0
:1030700007070707070707070707070707070707E0
:1030800007070707070707070707070707070707D0
:1030900007070707070707070707070707070707C0
:1030A00007070707070707070707070707070707B0
:1030B00007070707070707070707070707070707A0
:1030C0000707070707070707070707070707070B8C
:1030D0000B0B0B0B0B0B0B0B0B0B0B0B0B0B0B0B40
:1030E0000B0B0B0B0B0B0B0B0B0B0B0B0B0B0B0B30
:1030F0000B0B0B0B0B0B0B0B0B0B0B0B0B0B0B0B20
:103100000B0B0B0B0B0B0B0B0B0B0B0B0B0B0B0B0F
:103110000B0B0B0B0B0B0B0B0B0B0B0B0B0B0B0BFF
:103120000B0B0B0B0B0B0B0B0B0B0B0B0B0B0B0BEF
:103130000B0B0B0B0B0B0B0B0B0B0B0B0B0B0B0BDF
:103140000B0B0B0B0B0B0B00000000000000000032
:10315000000000000000000000000000000000006F
:10316000000000000000000000000000000001015D
:103170000102030405060708090A0B0C0D0E0F10C7
:103180001112131415161718191A1B1C1D1E1F20B7
:1031900021222324252627272727272727272727D4
:1031A00027272727272727272727272727272727AF
:1031B000272727272727272727272727272727279F
:1031C000272727272727272727272727272727278F
:1031D000272727272727272727272727272727277F
:1031E0002727272727272727262524232221201F93
:1031F0001E1D1C1B1A191817161514131211100F67
:103200000E0D0C0B0A090807060504030201010153
:1032100000000000000000000000000000000000AE
:10322000000000000000000000000000000000009E
:10323000000000000000000000000000000000008E
:10324000000000000000000000000000000000007E
:10325000000000000000000000000000000001016C
:103260000102030405060708090A0B0C0D0E0F10D6
:103270001112131415161718191A1B1C1D1E1F20C6
:1032800021222324252627272727272727272727E3
:1032900027272727272727272727272727272727BE
:1032A00027272727272727272727272727272727AE
:1032B000272727272727272727272727272727279E
:1032C000272727272727272727272727272727278E
:1032D0002727272727272727262524232221201FA2
:1032E0001E1D1C1B1A191817161514131211100F76
:1032F0000E0D0C0B0A090807060504030201010163
:1033000000000000000000000000000000000000BD
:1033100000000000000000000000000000000000AD
:103320000000000000000027262524232221201F62
:103330001E1D1C1B1A191817161514131211100F25
:103340000E0D0C0B0A090807060504030201010112
:10335000000000000000000000000000000000006D
:10336000000000000000000000000000000000005D
:10337000000000000000000000000000000000004D
:10338000000000000000000000000000000000003D
:10339000000000000000000000000000000001002C
:1033A0000000000000000000000101020304050607
:1033B0000708090A0B0C0D0E0F1011121314151625
:1033C0001718191A1B1C1D1E1F2021222324252615
:1033D000272727272727272727272727272727277D
:1033E000272727272727272727272727272727276D
:1033F000272727272727272727272727272727275D
:10340000272727272727272727272727272727274C
:103410002727272727272727262524232221201F60
:103420001E1D1C1B1A191817161514131211100F34
:103430000E0D0C0B0A090807060504030201010121
:10344000000000000000000000000000000000007C
:10345000000000000000000000000000000000006C
:10346000000000000000000000000000000000005C
:10347000000000000000000000000000000000004C
:10348000000000000000000000000000000001003B
:103490000000000000000000000101020304050616
:1034A0000708090A0B0C0D0E0F1011121314151634
:1034B0001718191A1B1C1D1E1F2021222324252624
:1034C000272727272727272727272727272727278C
:1034D000272727272727272727272727272727277C
:1034E000272727272727272727272727272727276C
:1034F000272727272727272727272727272727275C
:10350000272727272727272727272727272727274B
:10351000272727272727272727272727272727273B
:10352000272727272727272727272727272727272B
:10353000272727272727272727272727272727271B
:10354000272727272727272727272727272727270B
:1035500027272727272727272727272727272727FB
:1035600027272523211F1D1B1917151413121110AE
:103570000F0E0D0C0B0A09080706050403020101D2
:10358000000000000000000000000000000000003B
:10359000000000000000000000000000000000002B
:1035A000000000000000000000000000000000001B
:1035B000000000000000000000000000000000000B
:1035C00000000000000000000000000000000101F9
:1035D0000102030405060708090A0C0E101214164E
:1035E000181A1C1D1E1F20212223242526272727C9
:1035F000272727272727272727272727272727275B
:10360000272727272727272727272727272727274A
:10361000272727272727272727272727272727273A
:10362000272727272727272727272727272727272A
:10363000272727272727272727272727272727271A
:10364000272727272727272727272727272727270A
:1036500027272523211F1D1B1917151413121110BD
:103660000F0E0D0C0B0A09080706050403020101E1
:10367000000000000000000000000000000000004A
:10368000000000000000000000000000000000003A
:10369000000000000000000000000000000000002A
:1036A000000000000000000000000000000000001A
:1036B0000000000000000000000000000000010108
:1036C0000102030405060708090A0C0E101214165D
:1036D000181A1C1D1E1F20212223242526272727D8
:1036E00027272727272727000000000000000000C9
:1036F00000000000000000000000000000000000CA
:103700000000000000000000000000000000002792
:103710002727272727272727272727272727272739
:103720002727272727272727272727272727272729
:103730002727272727272700000000000000000078
:103740000000000000000000000000000000000079
:103750000000000000000000000000000000002742
:1037600027272727272727272727272727272727E9
:1037700027272727272727272727272727272727D9
:103780002727272727272700000000000000000028
:103790000000000000000000000000000000000029
:1037A00000000000000000000000000000000027F2
:1037B0002727272727272727272727272727272799
:1037C0002727272727272727272727272727272789
:1037D00027272727272727000000000000000000D8
:1037E00000000000000000000000000000000000D9
:1037F00000000000000000000000000000000027A2
:103800002727272727272727272727272727272748
:103810002727272727272727272727272727272738
:103820002727272727272700000000000000000087
:103830000000000000000000000000000000000088
:103840000000000000000000000000000000002751
:1038500027272727272727272727272727272727F8
:1038600027272727272727272727272727272727E8
:103870002727272727272700000000000000000037
:103880000000000000000000000000000000000038
:103890000000000000000000000000000000002701
:1038A00027272727272727272727272727272727A8
:1038B0002727272727272727272727272727272798
:1038C00027272727272727000000000000000000E7
:1038D00000000000000000000000000000000000E8
:1038E00000000000000000000000000000000027B1
:1038F0002727272727272727272727272727272758
:103900002727272727272727272727272727272747
:103910002727272727272700000000000000000096
:103920000000000000000000000000000000000097
:103930000000000000000000000000000000002760
:103940002727272727272727272727272727272707
:1039500027272727272727272727272727272727F7
:103960002727272727272700000000000000000046
:103970000000000000000000000000000000000047
:103980000000000000000000000000000000002710
:1039900027272727272727272727272727272727B7
:1039A00027272727272727272727272727272727A7
:1039B00027272727272727000000000000000000F6
:1039C00000000000000000000000000000000000F7
:1039D00000000000000000000000000000000027C0
:1039E0002727272727272727272727272727272767
:1039F0002727272727272727272727272727272757
:103A000027272727272727000000000000000000A5
:103A100000000000000000000000000000000000A6
:103A2000000000000000000000000000000000276F
:103A30002727272727272727272727272727272716
:103A40002727272727272727272727272727272706
:103A50002727272727272700000000000000000055
:103A60000000000000000000000000000000000056
:103A7000000000000000000000000000000000271F
:103A800027272727272727272727272727272727C6
:103A900027272727272727272727272727272727B6
:103AA00027272727272727272727272727272727A6
:103AB0002727272727272727272727272727272796
:103AC0002727272727272727272727272727272786
:103AD0002727272727272727272727272727272776
:103AE0002727272727272727272727272727272766
:103AF0002727272727272727272727272727272756
:103B00002727272727272727272727272727272745
:103B10002727272727272727272727272727272735
:103B20002727272727272727272727272727272725
:103B30002727272727272727272727272727272715
:103B40002727272727272727272727272727272705
:103B500027272727272727272727272727272727F5
:103B600027272727272727272727272727272727E5
:103B700027272727272727272727272727272727D5
:103B800027272727272727272727272727272727C5
:103B900027272727272727272727272727272727B5
:103BA00027272727272727272727272727272727A5
:103BB0002727272727272727272727272727272795
:103BC0002727272727272727272727272727272785
:103BD0002727272727272727272727272727272775
:103BE0002727272727272727272727272727272765
:103BF0002727272727272727272727272727272755
:103C00002727272727272727272727272727272744
:103C10002727272727272727272727272727272734
:103C20002727272727272727272727272727272724
:103C30002727272727272727272727272727272714
:103C40002727272727272727272727272727272704
:103C500027272727272727272727272727272727F4
:103C600027272727272727272727272727272727E4
:103C700027272727272727272727272727272727D4
:103C8000272727272727270C0C0C0D0D0E0E0F0FAB
:103C900010101111121213131414151516161717EC
:103CA000181819191A1A1B1B1C1C1D1D1E1E1F1F5C
:103CB0001E1E1D1D1C1C1B1B1A1A1919181817175C
:103CC00016161515141413131212111110100F0FCC
:103CD0000E0E0D0D0C0C0C0C0C0C0D0D0E0E0F0F12
:103CE000101011111212131314141515161617179C
:103CF000181819191A1A1B1B1C1C1D1D1E1E1F1F0C
:103D00001E1E1D1D1C1C1B1B1A1A1919181817170B
:103D100016161515141413131212111110100F0F7B
:103D20000E0E0D0D0C0C0C0C0C0C0D0D0E0E0F0FC1
:103D3000101011111212131314141515161617174B
:103D4000181819191A1A1B1B1C1C1D1D1E1E1F1FBB
:103D50001E1E1D1D1C1C1B1B1A1A191918181717BB
:103D600016161515141413131212111110100F0F2B
:103D70000E0E0D0D0C0C0C0C0C0C0D0D0E0E0F0F71
:103D800010101111121213131414151516161717FB
:103D9000181819191A1A1B1B1C1C1D1D1E1E1F1F6B
:103DA0001E1E1D1D1C1C1B1B1A1A1919181817176B
:103DB00016161515141413131212111110100F0FDB
:103DC0000E0E0D0D0C0C0C0C0C0C0D0D0E0E0F0F21
:103DD00010101111121213131414151516161717AB
:103DE000181819191A1A1B1B1C1C1D1D1E1E1F1F1B
:103DF0001E1E1D1D1C1C1B1B1A1A1919181817171B
:103E000016161515141413131212111110100F0F8A
:103E10000E0E0D0D0C0C0C0C0C0C0D0D0E0E0F0FD0
:103E2000101011111212131314141515161617175A
:103E3000181819191A1A1B1B1C1C1D1D1E1E1F1FCA
:103E40001E1E1D1D1C1C1B1B1A1A191918181717CA
:103E500016161515141413131212111110100F0F3A
:103E60000E0E0D0D0C0C0C252424232322222121BF
:103E7000212020201F1F1F1E1E1E1D1D1D1C1C1C5F
:103E80001B1B1B1A1A1A19191918181817171717A4
:103E900017171818181919191A1A1A1B1B1B1C1C8A
:103EA0001C1D1D1D1E1E1E1F1F1F20202021212125
:103EB00022222323242425252424232322222121D2
:103EC000212020201F1F1F1E1E1E1D1D1D1C1C1C0F
:103ED0001B1B1B1A1A1A1919191818181717171754
:103EE00017171818181919191A1A1A1B1B1B1C1C3A
:103EF0001C1D1D1D1E1E1E1F1F1F202020212121D5
:103F00002222232324242525242423232222212181
:103F1000212020201F1F1F1E1E1E1D1D1D1C1C1CBE
:103F20001B1B1B1A1A1A1919191818181717171703
:103F300017171818181919191A1A1A1B1B1B1C1CE9
:103F40001C1D1D1D1E1E1E1F1F1F20202021212184
:103F50002222232324242525242423232222212131
:103F6000212020201F1F1F1E1E1E1D1D1D1C1C1C6E
:103F70001B1B1B1A1A1A19191918181817171717B3
:103F800017171818181919191A1A1A1B1B1B1C1C99
:103F90001C1D1D1D1E1E1E1F1F1F20202021212134
:103FA00022222323242425252424232322222121E1
:103FB000212020201F1F1F1E1E1E1D1D1D1C1C1C1E
:103FC0001B1B1B1A1A1A1919191818181717171763
:103FD00017171818181919191A1A1A1B1B1B1C1C49
:103FE0001C1D1D1D1E1E1E1F1F1F202020212121E4
:103FF0002222232324242525242423232222212191
:10400000212020201F1F1F1E1E1E1D1D1D1C1C1CCD
:104010001B1B1B1A1A1A1919191818181717171712
:1040200017171818181919191A1A1A1B1B1B1C1CF8
:104030001C1D1D1D1E1E1E1F1F1F20202021212193
:10404000222223232424250C0C0C0D0D0E0E0F0F01
:104050001010111112121313141415151616171728
:10406000181819191A1A1B1B1C1C1D1D1E1E1F1F98
:104070001E1E1D1D1C1C1B1B1A1A19191818171798
:1040800016161515141413131212111110100F0F08
:104090000E0E0D0D0C0C0C0C0C0C0D0D0E0E0F0F4E
:1040A00010101111121213131414151516161717D8
:1040B000181819191A1A1B1B1C1C1D1D1E1E1F1F48
:1040C0001E1E1D1D1C1C1B1B1A1A19191818171748
:1040D00016161515141413131212111110100F0FB8
:1040E0000E0E0D0D0C0C0C0C0C0C0D0D0E0E0F0FFE
:1040F0001010111112121313141415151616171788
:10410000181819191A1A1B1B1C1C1D1D1E1E1F1FF7
:104110001E1E1D1D1C1C1B1B1A1A191918181717F7
:1041200016161515141413131212111110100F0F67
:104130000E0E0D0D0C0C0C0C0C0C0D0D0E0E0F0FAD
:104140001010111112121313141415151616171737
:10415000181819191A1A1B1B1C1C1D1D1E1E1F1FA7
:104160001E1E1D1D1C1C1B1B1A1A191918181717A7
:1041700016161515141413131212111110100F0F17
:104180000E0E0D0D0C0C0C0C0C0C0D0D0E0E0F0F5D
:1041900010101111121213131414151516161717E7
:1041A000181819191A1A1B1B1C1C1D1D1E1E1F1F57
:1041B0001E1E1D1D1C1C1B1B1A1A19191818171757
:1041C00016161515141413131212111110100F0FC7
:1041D0000E0E0D0D0C0C0C0C0C0C0D0D0E0E0F0F0D
:1041E0001010111112121313141415151616171797
:1041F000181819191A1A1B1B1C1C1D1D1E1E1F1F07
:104200001E1E1D1D1C1C1B1B1A1A19191818171706
:1042100016161515141413131212111110100F0F76
:104220000E0E0D0D0C0C0C21201F1E1D1C1B1A192F
:104230001817161514131211100F0E0D0C0B0A0A75
:104240000B0C0D0E0F101112131415161718191A46
:104250001B1C1D1E1F202121201F1E1D1C1B1A1987
:104260001817161514131211100F0E0D0C0B0A0A45
:104270000B0C0D0E0F101112131415161718191A16
:104280001B1C1D1E1F202121201F1E1D1C1B1A1957
:104290001817161514131211100F0E0D0C0B0A0A15
:1042A0000B0C0D0E0F101112131415161718191AE6
:1042B0001B1C1D1E1F202121201F1E1D1C1B1A1927
:1042C0001817161514131211100F0E0D0C0B0A0AE5
:1042D0000B0C0D0E0F101112131415161718191AB6
:1042E0001B1C1D1E1F202121201F1E1D1C1B1A19F7
:1042F0001817161514131211100F0E0D0C0B0A0AB5
:104300000B0C0D0E0F101112131415161718191A85
:104310001B1C1D1E1F202121201F1E1D1C1B1A19C6
:104320001817161514131211100F0E0D0C0B0A0A84
:104330000B0C0D0E0F101112131415161718191A55
:104340001B1C1D1E1F202121201F1E1D1C1B1A1996
:104350001817161514131211100F0E0D0C0B0A0A54
:104360000B0C0D0E0F101112131415161718191A25
:104370001B1C1D1E1F202121201F1E1D1C1B1A1966
:104380001817161514131211100F0E0D0C0B0A0A24
:104390000B0C0D0E0F101112131415161718191AF5
:1043A0001B1C1D1E1F202121201F1E1D1C1B1A1936
:1043B0001817161514131211100F0E0D0C0B0A0AF4
:1043C0000B0C0D0E0F101112131415161718191AC5
:1043D0001B1C1D1E1F202121201F1E1D1C1B1A1906
:1043E0001817161514131211100F0E0D0C0B0A0AC4
:1043F0000B0C0D0E0F101112131415161718191A95
:104400001B1C1D1E1F20212524232221201F1E1DB1
:104410001C1B1A191817161514131211100F0E0E53
:104420000F101112131415161718191A1B1C1D1E24
:104430001F2021222324252524232221201F1E1D65
:104440001C1B1A191817161514131211100F0E0E23
:104450000F101112131415161718191A1B1C1D1EF4
:104460001F2021222324252524232221201F1E1D35
:104470001C1B1A191817161514131211100F0E0EF3
:104480000F101112131415161718191A1B1C1D1EC4
:104490001F2021222324252524232221201F1E1D05
:1044A0001C1B1A191817161514131211100F0E0EC3
:1044B0000F101112131415161718191A1B1C1D1E94
:1044C0001F2021222324252524232221201F1E1DD5
:1044D0001C1B1A191817161514131211100F0E0E93
:1044E0000F101112131415161718191A1B1C1D1E64
:1044F0001F2021222324252524232221201F1E1DA5
:104500001C1B1A191817161514131211100F0E0E62
:104510000F101112131415161718191A1B1C1D1E33
:104520001F2021222324252524232221201F1E1D74
:104530001C1B1A191817161514131211100F0E0E32
:104540000F101112131415161718191A1B1C1D1E03
:104550001F2021222324252524232221201F1E1D44
:104560001C1B1A191817161514131211100F0E0E02
:104570000F101112131415161718191A1B1C1D1ED3
:104580001F2021222324252524232221201F1E1D14
:104590001C1B1A191817161514131211100F0E0ED2
:1045A0000F101112131415161718191A1B1C1D1EA3
:1045B0001F2021222324252524232221201F1E1DE4
:1045C0001C1B1A191817161514131211100F0E0EA2
:1045D0000F101112131415161718191A1B1C1D1E73
:1045E0001F2021222324252524232221201F1E1DB4
:1045F0001C1B1A191817161514131211100F0E0E72
:104600000F101112131415161718191A1B1C1D1E42
:104610001F2021222324252524232221201F1E1D83
:104620001C1B1A191817161514131211100F0E0E41
:104630000F101112131415161718191A1B1C1D1E12
:104640001F2021222324252524232221201F1E1D53
:104650001C1B1A191817161514131211100F0E0E11
:104660000F101112131415161718191A1B1C1D1EE2
:104670001F2021222324252524232221201F1E1D23
:104680001C1B1A191817161514131211100F0E0EE1
:104690000F101112131415161718191A1B1C1D1EB2
:1046A0001F2021222324252524232221201F1E1DF3
:1046B0001C1B1A191817161514131211100F0E0EB1
:1046C0000F101112131415161718191A1B1C1D1E82
:1046D0001F2021222324252524232221201F1E1DC3
:1046E0001C1B1A191817161514131211100F0E0E81
:1046F0000F101112131415161718191A1B1C1D1E52
:104700001F2021222324252524232221201F1E1D92
:104710001C1B1A191817161514131211100F0E0E50
:104720000F101112131415161718191A1B1C1D1E21
:104730001F2021222324252524232221201F1E1D62
:104740001C1B1A191817161514131211100F0E0E20
:104750000F101112131415161718191A1B1C1D1EF1
:104760001F2021222324252524232221201F1E1D32
:104770001C1B1A191817161514131211100F0E0EF0
:104780000F101112131415161718191A1B1C1D1EC1
:104790001F2021222324252524232221201F1E1D02
:1047A0001C1B1A191817161514131211100F0E0EC0
:1047B0000F101112131415161718191A1B1C1D1E91
:1047C0001F20212223242521201F1E1D1C1B1A19F6
:1047D0001817161514131211111213141516171891
:1047E000191A1B1C1D1E1F202121201F1E1D1C1BF2
:1047F0001A19181716151413121111111213141572
:10480000161718191A1B1C1D1E1F202121201F1EE0
:104810001D1C1B1A19181716151413121111121337
:104820001415161718191A1B1C1D1E1F20212120D4
:104830001F1E1D1C1B1A19181716151413121111FF
:1048400012131415161718191A1B1C1D1E1F2021D0
:1048500021201F1E1D1C1B1A1918171615141312C0
:10486000111112131415161718191A1B1C1D1E1FCF
:10487000202121201F1E1D1C1B1A19181716151484
:10488000131211111112131415161718191A1B1CD3
:104890001D1E1F202121201F1E1D1C1B1A19181749
:1048A0001615141312111112131415161718191ABC
:1048B0001B1C1D1E1F202121201F1E1D1C1B1A1921
:1048C00018171615141312111112131415161718A0
:1048D000191A1B1C1D1E1F202121201F1E1D1C1B01
:1048E0001A19181716151413121111111213141581
:1048F000161718191A1B1C1D1E1F202121201F1EF0
:104900001D1C1B1A19181716151413121111121346
:104910001415161718191A1B1C1D1E1F20212120E3
:104920001F1E1D1C1B1A191817161514131211110E
:1049300012131415161718191A1B1C1D1E1F2021DF
:1049400021201F1E1D1C1B1A1918171615141312CF
:10495000111112131415161718191A1B1C1D1E1FDE
:10496000202121201F1E1D1C1B1A19181716151493
:10497000131211111112131415161718191A1B1CE2
:104980001D1E1F202121201F1E1D1C1B1A19181758
:104990001615141312111112131415161718191ACB
:1049A0001B1C1D1E1F20212524232221201F1E1D0C
:1049B0001C1B1A191817161515161718191A1B1C6F
:1049C0001D1E1F2021222324252524232221201FD0
:1049D0001E1D1C1B1A191817161515151617181950
:1049E0001A1B1C1D1E1F20212223242525242322BF
:1049F00021201F1E1D1C1B1A191817161515161716
:104A000018191A1B1C1D1E1F2021222324252524B2
:104A1000232221201F1E1D1C1B1A191817161515DD
:104A2000161718191A1B1C1D1E1F202122232425AE
:104A30002524232221201F1E1D1C1B1A191817169E
:104A40001515161718191A1B1C1D1E1F20212223AD
:104A500024252524232221201F1E1D1C1B1A191862
:104A60001716151515161718191A1B1C1D1E1F20B1
:104A700021222324252524232221201F1E1D1C1B27
:104A80001A191817161515161718191A1B1C1D1E9A
:104A90001F2021222324252524232221201F1E1DFF
:104AA0001C1B1A191817161515161718191A1B1C7E
:104AB0001D1E1F2021222324252524232221201FDF
:104AC0001E1D1C1B1A19181716151515161718195F
:104AD0001A1B1C1D1E1F20212223242525242322CE
:104AE00021201F1E1D1C1B1A191817161515161725
:104AF00018191A1B1C1D1E1F2021222324252524C2
:104B0000232221201F1E1D1C1B1A191817161515EC
:104B1000161718191A1B1C1D1E1F202122232425BD
:104B20002524232221201F1E1D1C1B1A19181716AD
:104B30001515161718191A1B1C1D1E1F20212223BC
:104B400024252524232221201F1E1D1C1B1A191871
:104B50001716151515161718191A1B1C1D1E1F20C0
:104B600021222324252524232221201F1E1D1C1B36
:104B70001A191817161515161718191A1B1C1D1EA9
:104B80001F20212223242521201F1E1D1C1B1A1932
:104B900018171615141312111112131415161718CD
:104BA000191A1B1C1D1E1F202121201F1E1D1C1B2E
:104BB0001A191817161514131211111112131415AE
:104BC000161718191A1B1C1D1E1F202121201F1E1D
:104BD0001D1C1B1A19181716151413121111121374
:104BE0001415161718191A1B1C1D1E1F202121220F
:104BF0001F1E1D1C1B1A191817161514131211113C
:104C000012131415161718191A1B1C1D1E1F20210C
:104C100021201F1E1D1C1B1A1918171615141312FC
:104C2000111112131415161718191A1B1C1D1E1F0B
:104C3000202121201F1E1D1C1B1A191817161514C0
:104C4000131211111112131415161718191A1B1C0F
:104C50001D1E1F202121201F1E1D1C1B1A19181785
:104C60001615141312111112131415161718191AF8
:104C70001B1C1D1E1F202121201F1E1D1C1B1A195D
:104C800018171615141312111112131415161718DC
:104C9000191A1B1C1D1E1F202121201F1E1D1C1B3D
:104CA0001A191817161514131211111112131415BD
:104CB000161718191A1B1C1D1E1F202121201F1E2C
:104CC0001D1C1B1A19181716151413121111121383
:104CD0001415161718191A1B1C1D1E1F202121221E
:104CE0001F1E1D1C1B1A191817161514131211114B
:104CF00012131415161718191A1B1C1D1E1F20211C
:104D000021201F1E1D1C1B1A19181716151413120B
:104D1000111112131415161718191A1B1C1D1E1F1A
:104D2000202121201F1E1D1C1B1A191817161514CF
:104D3000131211111112131415161718191A1B1C1E
:104D40001D1E1F202121201F1E1D1C1B1A19181794
:104D50001615141312111112131415161718191A07
:104D60001B1C1D1E1F202127272222222222222235
:104D70002222222222222222222222222222222213
:104D8000222222222227271919191919191919194A
:104D90001919191919191919191919191919191983
:104DA00019191927272222222222222222222222F4
:104DB00022222222222222222222222222222222D3
:104DC000222727191919191919191919191919192E
:104DD0001919191919191919191919191919192735
:104DE000272222222222222222222222222222229E
:104DF0002222222222222222222222222227271992
:104E00001919191919191919191919191919191912
:104E100019191919191919191919192727222222CB
:104E20002222222222222222222222222222222262
:104E30002222222222222222222727191919191975
:104E400019191919191919191919191919191919D2
:104E50001919191919191927272222222222222267
:104E60002222222222222222222222222222222222
:104E70002222222222272719191919191919191959
:104E80001919191919191919191919191919191992
:104E90001919192727222222222222222222222203
:104EA00022222222222222222222222222222222E2
:104EB000222727191919191919191919191919193D
:104EC0001919191919191919191919191919192744
:104ED00027222222222222222222222222222222AD
:104EE00022222222222222222222222222272719A1
:104EF0001919191919191919191919191919191922
:104F000019191919191919191919192727222222DA
:104F10002222222222222222222222222222222271
:104F20002222222222222222222727191919191984
:104F300019191919191919191919191919191919E1
:104F40001919191919191927272727272727272753
:104F500027272727272727272727272727272727E1
:104F6000272727272727271919191919191919194F
:104F700019191919191919191919191919191919A1
:104F800019191927272727272727272727272727DB
:104F900027272727272727272727272727272727A1
:104FA0002727271919191919191919191919191947
:104FB0001919191919191919191919191919192753
:104FC0002727272727272727272727272727272771
:104FD000272727272727272727272727272727196F
:104FE0001919191919191919191919191919191931
:104FF00019191919191919191919192727272727DB
:105000002727272727272727272727272727272730
:105010002727272727272727272727191919191966
:1050200019191919191919191919191919191919F0
:105030001919191919191927272727272727272762
:1050400027272727272727272727272727272727F0
:10505000272727272727271919191919191919195E
:1050600019191919191919191919191919191919B0
:1050700019191927272727272727272727272727EA
:1050800027272727272727272727272727272727B0
:105090002727271919191919191919191919191956
:1050A0001919191919191919191919191919192762
:1050B0002727272727272727272727272727272780
:1050C000272727272727272727272727272727197E
:1050D0001919191919191919191919191919191940
:1050E00019191919191919191919192727272727EA
:1050F0002727272727272727272727272727272740
:105100002727272727272727272727191919191975
:1051100019191919191919191919191919191919FF
:105120001919191919191927272727272727272771
:1051300027272727272727272727272727272727FF
:10514000272727272727271F1F1F1F1F1F1F1F1F37
:105150001F1F1F1F1F1F1F1F1F1F1F1F1F1F1F1F5F
:105160001F1F1F27272727272727272727272727E7
:1051700027272727272727272727272727272727BF
:105180002727271F1F1F1F1F1F1F1F1F1F1F1F1F17
:105190001F1F1F1F1F1F1F1F1F1F1F1F1F1F1F2717
:1051A000272727272727272727272727272727278F
:1051B0002727272727272727272727272727271F87
:1051C0001F1F1F1F1F1F1F1F1F1F1F1F1F1F1F1FEF
:1051D0001F1F1F1F1F1F1F1F1F1F1F2727272727B7
:1051E000272727272727272727272727272727274F
:1051F00027272727272727272727271F1F1F1F1F67
:105200001F1F1F1F1F1F1F1F1F1F1F1F1F1F1F1FAE
:105210001F1F1F1F1F1F1F27272727272727272756
:10522000272727272727272727272727272727270E
:10523000272727272727271F1F1F1F1F1F1F1F1F46
:105240001F1F1F1F1F1F1F1F1F1F1F1F1F1F1F1F6E
:105250001F1F1F27272727272727272727272727F6
:1052600027272727272727272727272727272727CE
:105270002727271F1F1F1F1F1F1F1F1F1F1F1F1F26
:105280001F1F1F1F1F1F1F1F1F1F1F1F1F1F1F2726
:10529000272727272727272727272727272727279E
:1052A0002727272727272727272727272727271F96
:1052B0001F1F1F1F1F1F1F1F1F1F1F1F1F1F1F1FFE
:1052C0001F1F1F1F1F1F1F1F1F1F1F2727272727C6
:1052D000272727272727272727272727272727275E
:1052E00027272727272727272727271F1F1F1F1F76
:1052F0001F1F1F1F1F1F1F1F1F1F1F1F1F1F1F1FBE
:105300001F1F1F1F1F1F1F000000000000000000C4
:10531000000000000000000000000000000000008D
:10532000000000000000000000000000000000007D
:105330000102030405060708090A0B0C0D0E0F10E5
:105340001112131415161718191A1B1C1D1E1F20D5
:1053500021222324252627272727272727272727F2
:1053600027272727272727272727272727272727CD
:1053700027272727272727272727272727272727BD
:10538000262524232221201F1E1D1C1B1A19181735
:10539000161514131211100F0E0D0C0B0A09080725
:1053A00006050403020100000000000000000000E8
:1053B00000000000000000000000000000000000ED
:1053C00000000000000000000000000000000000DD
:1053D00000000000000000000000000000000000CD
:1053E00000000000000000000000000000000000BD
:1053F00000000000000000000000000000000000AD
:10540000000000000000000000000000000000009C
:10541000000000000000000000000000000000008C
:105420000102030405060708090A0B0C0D0E0F10F4
:105430001112131415161718191A1B1C1D1E1F20E4
:105440002122232425262727272727272727272701
:1054500027272727272727272727272727272727DC
:1054600027272727272727272727272727272727CC
:10547000262524232221201F1E1D1C1B1A19181744
:10548000161514131211100F0E0D0C0B0A09080734
:1054900006050403020100000000000000000000F7
:1054A00000000000000000000000000000000000FC
:1054B00000000000000000000000000000000000EC
:1054C00000000000000000000000000000000000DC
:1054D00000000000000000000000000000000000CC
:1054E000000000000000002727272727272727275D
:1054F000272727272727272727272727272727273C
:10550000272727272727272727272727272727272B
:10551000262524232221201F1E1D1C1B1A191817A3
:10552000161514131211100F0E0D0C0B0A09080793
:105530000605040302010000000000000000000056
:10554000000000000000000000000000000000005B
:10555000000000000000000000000000000000004B
:10556000000000000000000000000000000000003B
:10557000000000000000000000000000000000002B
:10558000000000000000000000000000000000001B
:10559000000000000000000000000000000000000B
:1055A00000000000000000000000000000000000FB
:1055B0000102030405060708090A0B0C0D0E0F1063
:1055C0001112131415161718191A1B1C1D1E1F2053
:1055D0002122232425262727272727272727272770
:1055E000272727272727272727272727272727274B
:1055F000272727272727272727272727272727273B
:10560000262524232221201F1E1D1C1B1A191817B2
:10561000161514131211100F0E0D0C0B0A090807A2
:105620000605040302010000000000000000000065
:10563000000000000000000000000000000000006A
:10564000000000000000000000000000000000005A
:10565000000000000000000000000000000000004A
:10566000000000000000000000000000000000003A
:10567000000000000000000000000000000000002A
:10568000000000000000000000000000000000001A
:10569000000000000000000000000000000000000A
:1056A0000102030405060708090A0B0C0D0E0F1072
:1056B0001112131415161718191A1B1C1D1E1F2062
:1056C000212223242526272727272727272727277F
:1056D000272727272727272727272727272727275A
:1056E000272727272727272727272727272727274A
:1056F000272727272727272727272727272727273A
:105700002727272727272727272727272727272729
:105710002727272727272727272727272727272719
:105720002727272727272727272727272727272709
:1057300027272727272727272727272727272727F9
:1057400027272727272727272727272727272727E9
:1057500027272727272727272727272727272727D9
:1057600027272727272727272727272727272727C9
:1057700027272727272727272727272727272727B9
:1057800027272727272727272727272727272727A9
:105790002727272727272727272727272727272799
:1057A0002727272727272727272727272727272789
:1057B0002727272727272727272727272727272779
:1057C0002727272727272727272727272727272769
:1057D0002727272727272727272727272727272759
:1057E0002727272727272727272727272727272749
:1057F0002727272727272727272727272727272739
:105800002727272727272727272727272727272728
:105810002727272727272727272727272727272718
:105820002727272727272727272727272727272708
:1058300027272727272727272727272727272727F8
:1058400027272727272727272727272727272727E8
:1058500027272727272727272727272727272727D8
:1058600027272727272727272727272727272727C8
:1058700027272727272727272727272727272727B8
:1058800027272727272727272727272727272727A8
:105890002727272727272727272727272727272798
:1058A0002727272727272712121212121212121245
:1058B00012121212121212121212121212121212C8
:1058C00012121212121212121212121212121212B8
:1058D00012121212121212121212121212121212A8
:1058E0001212121212121212121212121212121298
:1058F0001212121212121212121212121212121288
:105900001212121212121212121213141516171862
:10591000191A1B1C1D1E1F20212223242424242489
:105920002424242424242424242424242424242437
:105930002424242424242424242424242424242427
:105940002424242424242424242424232221201F26
:105950001E1D1C1B1A1918171615141312121212D9
:105960001212121212121212121212121212121217
:105970001212121212121212121212121212121207
:1059800012121212121212121212121212121212F7
:1059900012121212121212121212121212121212E7
:1059A00012121212121212121212121212121212D7
:1059B00012121212121212121212121212121212C7
:1059C00012121212121212121212121212121212B7
:1059D00012121212121212121212121212121212A7
:1059E0001212121212121212121212121212121297
:1059F0001212121212121212121213141516171872
:105A0000191A1B1C1D1E1F20212223242424242498
:105A10002424242424242424242424242424242446
:105A20002424242424242424242424242424242436
:105A30002424242424242424242424232221201F35
:105A40001E1D1C1B1A1918171615141312121212E8
:105A50001212121212121212121212121212121226
:105A60001212121212121212121212121212121216
:105A70001212121212121212121212121212121206
:105A80001212121212121227272727272727272739
:105A90002727272727272727272727272727272796
:105AA0002727272727272727272727272727272786
:105AB000272727272727272727272625242322218B
:105AC000201F1F1E1E1D1C1B1B1A1A191918181720
:105AD000171616151514141414151516161717186D
