:100000000C9441080C945E080C945E080C945E08F5
:100010000C945E080C945E080C94E30E0C945E083D
:100020000C945E080C945E080C94720E0C945E089E
:100030000C945E080C945E080C945E080C94830A81
:100040000C945E080C945E080C945E080C945E0898
:100050000C945E080C945E080C945E080C945E0888
:100060000C945E080C94270A0C945E080C945E08AD
:100070000C945E080C945E080C94E6090C945E08DF
:100080000C945E080C945E080C945E0828282727C0
:1000900027272728282828272727272728282828E8
:1000A0002727002727282828282727272727282801
:1000B00028282727272727282828282727002727F1
:1000C00028282828272727272728282828272727B8
:1000D00027272828282827270027272828282828CE
:1000E0002727272828282828282727272828282896
:1000F00028280000002828282828282727272828FB
:1001000028282828272727282828282828000000EA
:100110002828282828272727272728282828272766
:10012000272727282828282727002727282828287E
:100130002727272727282828282727002727282870
:100140002828272727272728282828272727272739
:10015000282828282727002727282828282727274E
:100160002727282828282727272727282828282717
:10017000270027272828282827272727272828282F
:10018000282827272728282828282800000028286A
:1001900028282828272727282828282828272727E5
:1001A0002828282828280000002828282828282748
:1001B00027272828282828272727272728282828C6
:1001C00027270027272828282827272727272828E0
:1001D00028282727002727282828282727272727D0
:1001E00028282828272727272728282828272700BE
:1001F0002727282828282727272727282828282787
:10020000272727272828282827270027272828289E
:100210002827272727272828282827272727272868
:1002200028282828000000282828282828272727C9
:100230002828282828282727272828282828280069
:100240000000282828282828272727282828282881
:10025000282727272828282828272700272728284D
:100260002828272727272728282828272727272718
:10027000282800000000000000000000000000002E
:10028000000000000000000000000000000000006E
:10029000000000000000000000000000000000005E
:1002A000000000000000000000000000000000004E
:1002B000000000000000000000000000000000003E
:1002C000000000000000000000000000000000002E
:1002D000000000000000000000000000000000001E
:1002E000000000000000000000000000000000000E
:1002F00000000000000000000000000000000000FE
:1003000000000000000000000000000000000000ED
:1003100000000000000000000000000000000000DD
:1003200000000000000000000000000000000000CD
:1003300000000000000000000000000000000000BD
:1003400000000000000000000000000000000000AD
:10035000000000000000000000000000000000009D
:10036000000000000000000000000000000000008D
:10037000000000000000000000000000000000007D
:10038000000000000000000000000000000000006D
:10039000000000000000000000000000000000005D
:1003A000000000000000000000000000000000004D
:1003B000000000000000000000000000000000003D
:1003C000000000000000000000000000000000002D
:1003D000000000000000000000000000000000001D
:1003E000000000000000000000000000000000000D
:1003F00000000000000000000000000000000000FD
:1004000000000000000000000000000000000000EC
:1004100000000000000000000000000000000000DC
:1004200000000000000000000000000000000000CC
:1004300000000000000000000000000000000000BC
:1004400000000000000000000000000000000000AC
:1004500000000000272727272727272727272727C8
:100460002727272727000000272727272727272791
:100470002727272727272727270000002727272781
:100480002727272727272727272727272700000071
:1004900027272727272727272727272727272727EC
:1004A0002700000027272727272727272727272751
:1004B0002727272727000000272727272727272741
:1004C0002727272727272727270000002727272731
:1004D0002727272727272727272727272700000021
:1004E000272727272727272727272727272727279C
:1004F0002700000027272727272727272727272701
:1005000027272727270000002727272727272727F0
:1005100027272727272727272700000027272727E0
:1005200027272727272727272727272727000000D0
:10053000272727272727272727272727272727274B
:10054000270027262524232221201F1E1D1C1B1ABD
:10055000191817161514131211100F0E0D0C0B0A83
:10056000090807060504030201000001020304054F
:10057000060708090A0B0C0D0E0F101112131415A3
:10058000161718191A1B1C1D1E1F20212223242593
:10059000262727262524232221201F1E1D1C1B1A47
:1005A000191817161514131211100F0E0D0C0B0A33
:1005B00009080706050403020100000102030405FF
:1005C000060708090A0B0C0D0E0F10111213141553
:1005D000161718191A1B1C1D1E1F20212223242543
:1005E000262727262524232221201F1E1D1C1B1AF7
:1005F000191817161514131211100F0E0D0C0B0AE3
:1006000009080706050403020100000102030405AE
:10061000060708090A0B0C0D0E0F10111213141502
:10062000161718191A1B1C1D1E1F202122232425F2
:100630002627000102030405060708090A0B0C0D12
:100640000E0F101112131415161718191A1B1C1D52
:100650001E1F202122232425262727272727272757
:10066000272727272727272727272727272727271A
:10067000272727272727272727272727272727270A
:10068000272727262524232221201F1E1D1C1B1A55
:10069000191817161514131211100F0E0D0C0B0A42
:1006A000090807060504030201000000000000001D
:1006B000000000000000000000000000000000003A
:1006C000000000000000000000000000000000002A
:1006D0000000000102030405060708090A0B0C0DBF
:1006E0000E0F101112131415161718191A1B1C1DB2
:1006F0001E1F2021222324252627272625242322C6
:1007000021201F1E1D1C1B1A191817161514131251
:1007100011100F0E0D0C0B0A090807060504030241
:1007200001000000000000000000000000000000C8
:1007300000000000000000000000000000000000B9
:1007400000000000000000000000000000000000A9
:100750000000000000000000000000000000000099
:100760000000000000000000000000000000000089
:100770000000000102030405060708090A0B0C0D1E
:100780000E0F101112131415161718191A1B1C1D11
:100790001E1F202122232425262727272727272716
:1007A00027272727272727272727272727272727D9
:1007B00027272727272727272727272727272727C9
:1007C00027272727272727272727272727272727B9
:1007D00027272727272727272727272727272727A9
:1007E00027272727272727272727272625242322A8
:1007F00021201F1E1D1C1B1A191817161514131261
:1008000011100F0E0D0C0B0A090807060504030250
:1008100001000000000000000000000000000000D7
:1008200000000000000000000000000000000000C8
:1008300000000000000000000000000102030405A9
:10084000060708090A0B0C0D0E0F101112131415D0
:10085000161718191A1B1C1D1E1F202122232425C0
:100860002627272727272727272727272727272719
:100870002727272727272727272727272727272708
:1008800027272727272727272727272727272727F8
:1008900027272727272727272727272727272727E8
:1008A00027272727272727272727272727272727D8
:1008B000272727262524232221201F1E1D1C1B1A23
:1008C000191817161514131211100F0E0D0C0B0A10
:1008D00009080706050403020100000000000000EB
:1008E0000000000000000000000000000000000008
:1008F00000000000000000000000000000000000F8
:10090000000027262524232221201F1E1D1C1B1A20
:10091000191817161514131211100F0E0D0C0B0ABF
:10092000090807060504030201000000000000009A
:1009300000000000000000000000000000000000B7
:1009400000000000000000000000000000000000A7
:100950000000000000000000000000000000000097
:100960000000000000000000000000000000000087
:100970000000000000000000000000010203040568
:10098000060708090A0B0C0D0E0F1011121314158F
:10099000161718191A1B1C1D1E1F2021222324257F
:1009A00026272727272727272727272727272727D8
:1009B00027272727272727272727272727272727C7
:1009C00027272727272727272727272727272727B7
:1009D00027272727272727272727272727272727A7
:1009E0002727272727272727272727272727272797
:1009F0002727272727272727272727272727272787
:100A00002727272727272727272727272727272776
:100A10002727272727272727272727272727272766
:100A20002727272727272727272727272727272756
:100A30002727272727272727272727272727272746
:100A4000272727262524232221201F1E1D1C1B1A91
:100A5000191817161514131211100F0E0D0C0B0A7E
:100A60000908070605040302010000000000000059
:100A70000000000000000000000000000000000076
:100A80000000000000000000000000000000000066
:100A90000000000000000000000000000000000056
:100AA0000000000000000000000000000000000046
:100AB0000000000000000000000000010203040527
:100AC000060708090A0B0C0D0E0F1011121314154E
:100AD000161718191A1B1C1D1E1F2021222324253E
:100AE00026270000272727272727272727272727E5
:100AF00027272727270000002727272727272727FB
:100B000027272727272727272700000027272727EA
:100B100027272727272727272727272727000000DA
:100B20002727272727272727272727272727272755
:100B300027000000272727272727272727272727BA
:100B400027272727270000002727272727272727AA
:100B5000272727272727272727000000272727279A
:100B6000272727272727272727272727270000008A
:100B70002727272727272727272727272727272705
:100B8000270000002727272727272727272727276A
:100B9000272727272700000027272727272727275A
:100BA000272727272727272727000000272727274A
:100BB000272727272727272727272727270000003A
:100BC00027272727272727272727272727272727B5
:100BD000270000002727272727272727272727271A
:100BE000272727272700000027272727272727270A
:100BF00027272727272727272700000027272727FA
:100C000027272727272727272727272727000000E9
:100C10002727272727272727272727272727272764
:100C200027000000272727272727272727272727C9
:100C300027272727270000002727272727272727B9
:100C400027272727272727272700000027272727A9
:100C50002727272727272727272727272700000099
:100C60002727272727272727272727272727272714
:100C70002700000027272727272727272727272779
:100C80002727272727000000272727272727272769
:100C90002727272727272727270000002727272759
:100CA0002727272727272727272727272700000049
:100CB00027272727272727272727272727272727C4
:100CC0002700000027272727272727272727272729
:100CD0002727272727000000272727272727272719
:100CE0002727272727272727270000002727272709
:100CF00027272727272727272727272727000000F9
:100D00002727272727272727272727272727272773
:100D100027000000272727272727272727272727D8
:100D200027272727270000002727272727272727C8
:100D300027272727272727272700000027272727B8
:100D400027272727272727272727272727000000A8
:100D50002727272727272727272727272727272723
:100D60002700000027272727272727272727272788
:100D70002727272727000000272727272727272778
:100D80002727272727272727270000002727272768
:100D90002727272727272727272727272700000058
:100DA00027272727272727272727272727272727D3
:100DB00027002727000000000000000000000000BE
:100DC00000000000002727270000000000000000AE
:100DD000000000000000000000272727000000009E
:100DE000000000000000000000000000002727278E
:100DF00000000000000000000000000000000000F3
:100E0000002727270000000000000000000000006D
:100E1000000000000027272700000000000000005D
:100E2000000000000000000000272727000000004D
:100E3000000000000000000000000000002727273D
:100E400000000000000000000000000000000000A2
:100E5000002727270000000000000000000000001D
:100E6000000000000027272700000000000000000D
:100E700000000000000000000027272700000000FD
:100E800000000000000000000000000000272727ED
:100E90000000000000000000000000000000000052
:100EA00000272727000000000000000000000000CD
:100EB00000000000002727270000000000000000BD
:100EC00000000000000000000027272700000000AD
:100ED000000000000000000000000000002727279D
:100EE0000000000000000000000000000000000002
:100EF000002727270000000000000000000000007D
:100F0000000000000027272700000000000000006C
:100F1000000000000000000000272727000000005C
:100F2000000000000000000000000000002727274C
:100F300000000000000000000000000000000000B1
:100F4000002727270000000000000000000000002C
:100F5000000000000027272700000000000000001C
:100F6000000000000000000000272727000000000C
:100F700000000000000000000000000000272727FC
:100F80000000000000000000000000000000000061
:100F900000272727000000000000000000000000DC
:100FA00000000000002727270000000000000000CC
:100FB00000000000000000000027272700000000BC
:100FC00000000000000000000000000000272727AC
:100FD0000000000000000000000000000000000011
:100FE000002727270000000000000000000000008C
:100FF000000000000027272700000000000000007C
:10100000000000000000000000272727000000006B
:10101000000000000000000000000000002727275B
:1010200000000000000000000000000000000000C0
:10103000002727270000000000000000000000003B
:10104000000000000027272700000000000000002B
:10105000000000000000000000272727000000001B
:10106000000000000000000000000000002727270B
:101070000000000000000000000000000000000070
:10108000002711241FBECFEFD0E1DEBFCDBF11E09E
:10109000A0E0B1E0EAE9F3E200E00BBF02C0079094
:1010A0000D92A030B107D9F711E0A0E0B1E001C086
:1010B0001D92A832B107E1F70C94B40F0C94000014
:1010C0009C01832F9927809398002093990088E9A9
:1010D00080939A0086E080939D00089580919B0004
:1010E0008823E4F780919C0099270895982F809198
:1010F0009B0085FFFCCF90939C000895CF93DF93D6
:10110000EC018881882331F089910E9476088881DA
:101110008823D1F7DF91CF9108951F93CF93DF9369
:10112000982F80910101891759F4809109018F5FEF
:1011300080930901853130F084E18093090102C078
:101140001092090190930101892F99278F77907050
:101150008D309105E9F08E3091051CF40C9749F023
:1011600031C18032910509F45DC0819709F4C1C095
:1011700029C180911601813021F410921601D8986E
:1011800004C081E080931601D89A10920001CAC071
:1011900080911601882309F445C0809100019927A8
:1011A000009719F0019791F0BDC081E08093000194
:1011B00010921E0180911701869586959927880FB8
:1011C000991F880F991F80931701ACC010920001DE
:1011D00010921F01809117018695869580932001BA
:1011E0008091270164E10E94AD1180932101882341
:1011F00019F48CE080932101CFE1D1E012E08881E5
:101200000E949A118993115017FFF9CF8091210103
:1012100080628093210147E06FE171E080E00E94ED
:10122000B01080C080911601882309F4CBC0809152
:1012300000019927009719F0019751F0C3C08091E0
:101240001501853019F41092150169C08F5F65C0D2
:1012500080910901209117018431C8F4822F8C5F9D
:1012600080931701803F11F41092170180911701AC
:101270006CE00E94AD11992309F0A4C08091270170
:101280008F5F80932701803F09F09CC02FC0822F81
:1012900068E10E94AD119923C9F0822F8C5F809381
:1012A0001701803F11F410921701809117016CE033
:1012B0000E94AD11992309F085C0809127018F5FAD
:1012C00080932701803F09F07DC010C0822F885E87
:1012D00080931701803F11F49093170180912701AB
:1012E0008E5F80932701803F09F06CC090932701A7
:1012F00069C080911601882309F464C080910001BF
:101300009927009719F0019789F05CC08091150129
:10131000882311F485E001C081508093150182E09B
:1013200080931B0189B78F7D89BF4CC080910901D3
:1013300020911701843180F4222319F480EF8093E7
:101340001701809117018450809317016CE00E946F
:10135000AD119923B9F515C0822F68E10E94AD1136
:101360009923D1F0222319F480EF80931701809103
:1013700017018450809317016CE00E94AD119923EE
:1013800009F580912701882319F480EF80932701C4
:1013900080912701815014C0222319F480EF80939B
:1013A00017018091170188518093170180912701BF
:1013B000882319F480EF80932701809127018250C0
:1013C00080932701DF91CF911F9108951F920F9273
:1013D0000FB60F9211242F938F939F93EF93FF9348
:1013E00090911C01E92FFF27E55FFE4F80919C0043
:1013F0008083892F8F5F80931C018530F1F4809169
:101400000B018235D1F480910C018534B1F48091C7
:101410000D01833591F480910E01853471F4809132
:101420000F01843551F488E190E02BE00FB6F89479
:10143000A89581BD0FBE21BDFFCFFF91EF919F9178
:101440008F912F910F900FBE0F901F9018951F92A4
:101450000F920FB60F9211242F935F936F937F9388
:101460008F939F93AF93BF9310928900109288003F
:1014700080918000909181008D56944840F4809135
:101480007C0082FD04C080911601882381F4809144
:101490007C00846080937C0087E290E09BBD8ABDE5
:1014A00099BD88BD90937900809378001FC080918A
:1014B00080009091810060EF70E00E94B91161BFDF
:1014C0008091800090918100282F91B780EF989FA4
:1014D000C0011124281B2093180188E7809319016B
:1014E00081B7825082BF87B7826087BFBF91AF91BB
:1014F0009F918F917F916F915F912F910F900FBE70
:101500000F901F9018951F920F920FB60F921124F3
:101510002F933F934F935F936F937F938F939F93FB
:10152000EF93FF9390911901973719F487B78D7F47
:1015300087BF50911801552319F481B7815081BF9D
:10154000903F11F41092190160910001613009F48B
:1015500013C180911901282F332780911E01281B68
:1015600031092115310509F4A0C0121613067CF1CA
:101570007FEF2431370709F4E4C08FEF25313807B6
:101580007CF4EFEF22313E0709F4B5C0FFEF2331C1
:101590003F070CF0C3C021513F4F09F499C0ECC084
:1015A0008FEF2D3F380709F447C0EFEF2E3F3E077E
:1015B00024F42C5F3F4F69F1DFC07FEF2E3F3707E8
:1015C00009F44DC02F5F3F4F09F45CC0D5C02430F3
:1015D000310509F4B6C0253031054CF4223031050F
:1015E00009F489C0233031050CF098C071C02D3E3C
:1015F000310511F12E3E310524F42C3E310549F020
:10160000BBC02E3E310559F12F3E310509F43AC0D9
:10161000B3C0909115018BE1989FC0011124FC018A
:10162000E053FE4F4491FC01E752FE4F3491FC0120
:10163000EE51FE4F249197C0909115018BE1989F38
:10164000C0011124FC01EF52FE4F4491FC01E6520F
:10165000FE4F3491FC01ED51FE4F249184C09091D6
:1016600015018BE1989FC0011124FC01EE52FE4F41
:101670004491FC01E552FE4F3491FC01EC51FE4FC8
:10168000249171C0909115018BE1989FC0011124A4
:10169000FC01ED52FE4F4491FC01E452FE4F3491A7
:1016A000FC01EB51FE4F24915EC0909115018BE13E
:1016B000989FC0011124FC01EC52FE4F4491FC01A3
:1016C000E352FE4F3491FC01EA51FE4F24914BC08E
:1016D000909115018BE1989FC0011124FC01EB5200
:1016E000FE4F4491FC01E252FE4F3491FC01E9515E
:1016F000FE4F249138C0909115018BE1989FC00155
:101700001124FC01EA52FE4F4491FC01E152FE4FCC
:101710003491FC01E851FE4F249125C090911501B0
:101720008BE1989FC0011124FC01E952FE4F4491C6
:10173000FC01E052FE4F3491FC01E751FE4F249131
:1017400012C0909115018BE1989FC0011124FC01FA
:10175000E852FE4F4491FC01EF51FE4F3491FC01E1
:10176000E651FE4F2491483209F010C1383209F099
:1017700010C1283209F010C180911901282F332798
:1017800080911701281B31092115310509F4A0C0EA
:10179000121613067CF1EFEF24313E0709F4E4C082
:1017A000FFEF25313F077CF47FEF2231370709F443
:1017B000B5C08FEF233138070CF0C3C021513F4F24
:1017C00009F499C0ECC0FFEF2D3F3F0709F447C073
:1017D0007FEF2E3F370724F42C5F3F4F69F1DFC0C6
:1017E000EFEF2E3F3E0709F44DC02F5F3F4F09F446
:1017F0005CC0D5C02430310509F4B6C025303105B0
:101800004CF42230310509F489C0233031050CF045
:1018100098C071C02D3E310511F12E3E310524F4E2
:101820002C3E310549F0BBC02E3E310559F12F3E0B
:10183000310509F43AC0B3C0909115018BE1989F2E
:10184000C0011124FC01E25DFE4F4491FC01E95C02
:10185000FE4F3491FC01E05CFE4F249197C09091C3
:1018600015018BE1989FC0011124FC01E15DFE4F41
:101870004491FC01E85CFE4F3491FC01EF5BFE4FAC
:10188000249184C0909115018BE1989FC00111248F
:10189000FC01E05DFE4F4491FC01E75CFE4F34919A
:1018A000FC01EE5BFE4F249171C0909115018BE11C
:1018B000989FC0011124FC01EF5CFE4F4491FC0194
:1018C000E65CFE4F3491FC01ED5BFE4F24915EC05F
:1018D000909115018BE1989FC0011124FC01EE5CF1
:1018E000FE4F4491FC01E55CFE4F3491FC01EC5B42
:1018F000FE4F24914BC0909115018BE1989FC00140
:101900001124FC01ED5CFE4F4491FC01E45CFE4FB0
:101910003491FC01EB5BFE4F249138C0909115018E
:101920008BE1989FC0011124FC01EC5CFE4F4491B7
:10193000FC01E35CFE4F3491FC01EA5BFE4F249115
:1019400025C0909115018BE1989FC0011124FC01E5
:10195000EB5CFE4F4491FC01E25CFE4F3491FC01D4
:10196000E95BFE4F249112C0909115018BE1989F85
:10197000C0011124FC01EA5CFE4F4491FC01E15CD2
:10198000FE4F3491FC01E85BFE4F2491483209F090
:1019900010C1383209F00FC1283209F00EC1809110
:1019A0001901282F332780912701281B3109211580
:1019B000310509F4A0C0121613067CF17FEF243123
:1019C000370709F4E4C08FEF253138077CF4EFEFD7
:1019D00022313E0709F4B5C0FFEF23313F070CF079
:1019E000C3C021513F4F09F499C024C18FEF2D3F4F
:1019F000380709F447C0EFEF2E3F3E0724F42C5F71
:101A00003F4F69F117C17FEF2E3F370709F44DC0F3
:101A10002F5F3F4F09F45CC00DC12430310509F43C
:101A2000B6C0253031054CF42230310509F489C0A7
:101A3000233031050CF098C071C02D3E310511F1F5
:101A40002E3E310524F42C3E310549F0F3C02E3EE4
:101A5000310559F12F3E310509F43AC0EBC09091A0
:101A600015018BE1989FC0011124FC01E457FF4F41
:101A70004491FC01EB56FF4F3491FC01E256FF4FBD
:101A8000249197C0909115018BE1989FC00111247A
:101A9000FC01E357FF4F4491FC01EA56FF4F34919C
:101AA000FC01E156FF4F249184C0909115018BE118
:101AB000989FC0011124FC01E257FF4F4491FC01A3
:101AC000E956FF4F3491FC01E056FF4F249171C05D
:101AD000909115018BE1989FC0011124FC01E15701
:101AE000FF4F4491FC01E856FF4F3491FC01EF5544
:101AF000FF4F24915EC0909115018BE1989FC0012A
:101B00001124FC01E057FF4F4491FC01E756FF4FC1
:101B10003491FC01EE55FF4F24914BC0909115017B
:101B20008BE1989FC0011124FC01EF56FF4F4491B7
:101B3000FC01E656FF4F3491FC01ED55FF4F249117
:101B400038C0909115018BE1989FC0011124FC01D0
:101B5000EE56FF4F4491FC01E556FF4F3491FC01D6
:101B6000EC55FF4F249125C0909115018BE1989F72
:101B7000C0011124FC01ED56FF4F4491FC01E456D5
:101B8000FF4F3491FC01EB55FF4F249112C090910F
:101B900015018BE1989FC0011124FC01EC56FF4F09
:101BA0004491FC01E356FF4F3491FC01EA55FF4F8D
:101BB0002491483229F4383219F4283209F43AC011
:101BC000613069F580911A0181FD29C08091090178
:101BD000882329F580911501282F332780ED92E085
:101BE000289FF001299FF00D389FF00D1124CF019F
:101BF00020911901820F911DFC01EE58FD4F249197
:101C000033273BBD2ABDFC01EE59FC4F24913327FD
:101C100039BD28BD8E5A9B4FFC01849147C0842F4B
:101C200099279BBD8ABD832F992799BD88BD822F97
:101C300099273DC0209115012530B9F480911E01EE
:101C4000282F3327F901EE5EF74F849199279BBD2A
:101C50008ABDF901EE5FF64F8491992799BD88BD41
:101C60002E50364FF901849121C0332780ED92E048
:101C7000289FB001299F700D389F700D1124CB0152
:101C800020911901820F911DFC01EE58FD4F249106
:101C900033273BBD2ABDFC01EE59FC4F249133276D
:101CA00039BD28BD8E5A9B4FFC0184919927909392
:101CB000790080937800809119018F5F80931901DA
:101CC000515050931801FF91EF919F918F917F9107
:101CD0006F915F914F913F912F910F900FBE0F9099
:101CE0001F9018951F920F920FB60F9211242F93E9
:101CF0003F934F936F937F938F939F9340911A01DC
:101D00004F5F40931A0180910201282F3327809161
:101D10001D01992787FD90952817390711F4109216
:101D20001D0180911D0180930201443009F03FC0E4
:101D300010921C0110921A0180911B018F5F8093F9
:101D40001B01843039F410921B011092090189B7EC
:101D5000806289BF80910001813049F180911E012C
:101D60008F5F80931E01803F11F410921E018091BD
:101D70001E016CE30E94AD119923C9F480911701F3
:101D80008F5F80931701803F11F49093170180912A
:101D900017016CE00E94AD11992349F4809127014D
:101DA0008F5F80932701803F11F4909327019F91CB
:101DB0008F917F916F914F913F912F910F900FBE17
:101DC0000F901F9018951F920F920FB60F9211242B
:101DD0002F933F934F935F936F937F938F939F9333
:101DE000AF93BF93EF93FF9310921B0120911D01BE
:101DF00050911A012223C1F484B5809303015093BA
:101E000005010D9B05C0109207011092060173C0D9
:101E100080E090E8909307018093060181E0809331
:101E20001D018093080167C094B5909304018091CF
:101E3000050140910301851721F0941B5093050182
:101E400001C0941B8091040180930301892F82506B
:101E5000833020F4809108018F5F06C09650933044
:101E600038F5809108018E5F8093080180FF22C0C1
:101E70000D9918C0332727FD30958FE090E0821B25
:101E8000930B21E030E002C0220F331F8A95E2F766
:101E90008091060190910701822B932B909307016B
:101EA0008093060180911D018F5F80931D0102C008
:101EB00010921D0180911D018E30E9F420910601E0
:101EC0003091070137FF15C036FF13C0832F9927C4
:101ED0008F719070892B69F4C901969587959695B5
:101EE000879535FF03C08F73806801C08F730E9490
:101EF0008D0810921D01FF91EF91BF91AF919F91BD
:101F00008F917F916F915F914F913F912F910F90A2
:101F10000FBE0F901F90189580918A008260809369
:101F20008A0080917D00806280937D0083B78A6003
:101F300083BF8FEF81BF85B5866085BD87B780641D
:101F400087BF8FB58E6F8FBD8EB589618EBD87E2DD
:101F500090E097BD86BD9BBD8ABD99BD88BD90931D
:101F60007900809378000895CFEFD0E1DEBFCDBF38
:101F7000D09A87B3806E87BBD8980E9420100E94A9
:101F80008C0F89E190E00E9460088AB784608ABF64
:101F900089B7806289BF80E090E0FC013197F1F75A
:101FA0000197F1F780E00E94261068E08FE191E050
:101FB0000E94351180911F018F77682F80E00E9469
:101FC000631061E987E00E946310809121018F71A5
:101FD00080932101CFE1D1E017E088810E94861132
:101FE0008993115017FFF9CF30911F01832F992743
:101FF000880F991F880F991F80931E01409120011F
:10200000242F220F220F832F6FE00E94AD11280F83
:1020100020931701809121016CE00E94AD1184E1B1
:10202000989F90011124842F63E00E94AD11820FCC
:1020300080932701D89A81E0809316017894FFCF8E
:1020400088E480937000109271000895482F84EA0C
:1020500080937400809174008823E4F7809171006C
:1020600099279C012870307083FD02C0C901089532
:1020700080ED8093730084E88093740080917400F5
:102080008823E4F7809171009927887190700097F8
:10209000C9F04093730084E88093740080917400C9
:1020A0008823E4F7809171009927887290700097D7
:1020B00049F084E98093740080EA9FE00197F1F78A
:1020C00081E090E00895482F84EA80937400809125
:1020D00074008823E4F78091710099279C0128708F
:1020E000307083FD02C0C901089580ED80937300B4
:1020F00084E880937400809174008823E4F78091D1
:102100007100992788719070009749F1409373008E
:1021100084E880937400809174008823E4F78091B0
:1021200071009927887290700097C9F060937300CE
:1021300084E880937400809174008823E4F7809190
:102140007100992788729070009749F084E9809314
:10215000740080EA9FE00197F1F781E090E0089534
:10216000582F84EA80937400809174008823E4F7E8
:102170008091710099279C012870307083FD02C006
:10218000C901089580ED8093730084E88093740002
:10219000809174008823E4F78091710099278871F9
:1021A0009070009799F15093730084E880937400C5
:1021B000809174008823E4F78091710099278872D8
:1021C0009070009719F120E02417B8F434E8FB016F
:1021D000E20FF11D80818093730030937400809131
:1021E00074008823E4F780917100992788729070B9
:1021F000009761F02F5F241750F384E980937400F7
:1022000080EA9FE00197F1F781E090E0089521E0F6
:1022100084EA80937400809174008823E4F78091AD
:10222000710083FF1BC020EF81ED8093730084E871
:1022300080937400809174008823E4F7809171008A
:1022400086FF0CC084E8809374008091740088231A
:10225000E4F72091730084E98093740080EA9FE0A2
:102260000197F1F7822F99270895DC0184EA809382
:102270007400809174008823E4F78091710083FFDB
:1022800037C081ED8093730084E88093740080915F
:1022900074008823E4F78091710086FF29C020E054
:1022A000772761507040161617069CF434EC309373
:1022B0007400809174008823E4F7FD01E20FF11DA2
:1022C0008091730080832F5F822F9927861797074D
:1022D00074F384E880937400809174008823E4F799
:1022E000A20FB11D809173008C9384E980937400D8
:1022F00080EA9FE00197F1F708950E946310089526
:102300000E9426100E94071199270895482F829550
:102310008F70282F3327C90153E0880F991F5A95D2
:10232000E1F7820F931F820F931F4F70480F842F86
:1023300099270895382F4AE0642F0E94AD11292F64
:10234000832F0E94AD11992764E0880F991F6A9529
:10235000E1F7282B822F99270895991B79E004C073
:10236000991F961708F0961B881F7A95C9F78095D4
:102370000895AA1BBB1B51E107C0AA1FBB1FA617CC
:10238000B70710F0A61BB70B881F991F5A95A9F71E
:0A23900080959095BC01CD010895E1
:00000001FF
